{
	"DeliveryEscrow.sol": {
		"DeliveryEscrow": {
			"abi": [
				{
					"inputs": [],
					"stateMutability": "nonpayable",
					"type": "constructor"
				},
				{
					"anonymous": false,
					"inputs": [
						{
							"indexed": true,
							"internalType": "bytes32",
							"name": "deliveryId",
							"type": "bytes32"
						},
						{
							"indexed": true,
							"internalType": "address",
							"name": "buyer",
							"type": "address"
						},
						{
							"indexed": true,
							"internalType": "address",
							"name": "seller",
							"type": "address"
						},
						{
							"indexed": false,
							"internalType": "uint256",
							"name": "amount",
							"type": "uint256"
						}
					],
					"name": "EscrowCreated",
					"type": "event"
				},
				{
					"anonymous": false,
					"inputs": [
						{
							"indexed": true,
							"internalType": "bytes32",
							"name": "deliveryId",
							"type": "bytes32"
						},
						{
							"indexed": true,
							"internalType": "address",
							"name": "buyer",
							"type": "address"
						},
						{
							"indexed": false,
							"internalType": "uint256",
							"name": "amount",
							"type": "uint256"
						}
					],
					"name": "EscrowRefunded",
					"type": "event"
				},
				{
					"anonymous": false,
					"inputs": [
						{
							"indexed": true,
							"internalType": "bytes32",
							"name": "deliveryId",
							"type": "bytes32"
						},
						{
							"indexed": true,
							"internalType": "address",
							"name": "seller",
							"type": "address"
						},
						{
							"indexed": false,
							"internalType": "uint256",
							"name": "amount",
							"type": "uint256"
						}
					],
					"name": "EscrowReleased",
					"type": "event"
				},
				{
					"inputs": [
						{
							"internalType": "bytes32",
							"name": "deliveryId",
							"type": "bytes32"
						}
					],
					"name": "autoRefund",
					"outputs": [],
					"stateMutability": "nonpayable",
					"type": "function"
				},
				{
					"inputs": [
						{
							"internalType": "bytes32",
							"name": "deliveryId",
							"type": "bytes32"
						}
					],
					"name": "canAutoRefund",
					"outputs": [
						{
							"internalType": "bool",
							"name": "",
							"type": "bool"
						}
					],
					"stateMutability": "view",
					"type": "function"
				},
				{
					"inputs": [
						{
							"internalType": "bytes32",
							"name": "deliveryId",
							"type": "bytes32"
						},
						{
							"internalType": "address",
							"name": "seller",
							"type": "address"
						}
					],
					"name": "deposit",
					"outputs": [],
					"stateMutability": "payable",
					"type": "function"
				},
				{
					"inputs": [
						{
							"internalType": "bytes32",
							"name": "",
							"type": "bytes32"
						}
					],
					"name": "escrows",
					"outputs": [
						{
							"internalType": "address",
							"name": "buyer",
							"type": "address"
						},
						{
							"internalType": "address",
							"name": "seller",
							"type": "address"
						},
						{
							"internalType": "uint256",
							"name": "amount",
							"type": "uint256"
						},
						{
							"internalType": "bool",
							"name": "released",
							"type": "bool"
						},
						{
							"internalType": "bool",
							"name": "refunded",
							"type": "bool"
						},
						{
							"internalType": "uint256",
							"name": "createdAt",
							"type": "uint256"
						},
						{
							"internalType": "uint256",
							"name": "releaseDeadline",
							"type": "uint256"
						}
					],
					"stateMutability": "view",
					"type": "function"
				},
				{
					"inputs": [
						{
							"internalType": "bytes32",
							"name": "deliveryId",
							"type": "bytes32"
						}
					],
					"name": "getEscrow",
					"outputs": [
						{
							"components": [
								{
									"internalType": "address",
									"name": "buyer",
									"type": "address"
								},
								{
									"internalType": "address",
									"name": "seller",
									"type": "address"
								},
								{
									"internalType": "uint256",
									"name": "amount",
									"type": "uint256"
								},
								{
									"internalType": "bool",
									"name": "released",
									"type": "bool"
								},
								{
									"internalType": "bool",
									"name": "refunded",
									"type": "bool"
								},
								{
									"internalType": "uint256",
									"name": "createdAt",
									"type": "uint256"
								},
								{
									"internalType": "uint256",
									"name": "releaseDeadline",
									"type": "uint256"
								}
							],
							"internalType": "struct DeliveryEscrow.Escrow",
							"name": "",
							"type": "tuple"
						}
					],
					"stateMutability": "view",
					"type": "function"
				},
				{
					"inputs": [],
					"name": "owner",
					"outputs": [
						{
							"internalType": "address",
							"name": "",
							"type": "address"
						}
					],
					"stateMutability": "view",
					"type": "function"
				},
				{
					"inputs": [
						{
							"internalType": "bytes32",
							"name": "deliveryId",
							"type": "bytes32"
						}
					],
					"name": "refund",
					"outputs": [],
					"stateMutability": "nonpayable",
					"type": "function"
				},
				{
					"inputs": [
						{
							"internalType": "bytes32",
							"name": "deliveryId",
							"type": "bytes32"
						}
					],
					"name": "release",
					"outputs": [],
					"stateMutability": "nonpayable",
					"type": "function"
				}
			],
			"devdoc": {
				"details": "Funds are locked until delivery verification, then released to seller",
				"kind": "dev",
				"methods": {
					"autoRefund(bytes32)": {
						"params": {
							"deliveryId": "Delivery identifier"
						}
					},
					"canAutoRefund(bytes32)": {
						"params": {
							"deliveryId": "Delivery identifier"
						},
						"returns": {
							"_0": "true if past deadline and not released/refunded"
						}
					},
					"deposit(bytes32,address)": {
						"params": {
							"deliveryId": "Unique delivery identifier (hashed to bytes32)",
							"seller": "Seller wallet address"
						}
					},
					"getEscrow(bytes32)": {
						"params": {
							"deliveryId": "Delivery identifier"
						},
						"returns": {
							"_0": "Escrow struct with all details"
						}
					},
					"refund(bytes32)": {
						"params": {
							"deliveryId": "Delivery identifier"
						}
					},
					"release(bytes32)": {
						"params": {
							"deliveryId": "Delivery identifier"
						}
					}
				},
				"title": "DeliveryEscrow",
				"version": 1
			},
			"evm": {
				"assembly": "    /* \"DeliveryEscrow.sol\":218:4991  contract DeliveryEscrow {... */\n  mstore(0x40, 0x80)\n    /* \"DeliveryEscrow.sol\":1299:1348  constructor() {... */\n  callvalue\n  dup1\n  iszero\n  tag_1\n  jumpi\n  revert(0x00, 0x00)\ntag_1:\n  pop\n    /* \"DeliveryEscrow.sol\":1331:1341  msg.sender */\n  caller\n    /* \"DeliveryEscrow.sol\":1323:1328  owner */\n  0x01\n  0x00\n    /* \"DeliveryEscrow.sol\":1323:1341  owner = msg.sender */\n  0x0100\n  exp\n  dup2\n  sload\n  dup2\n  0xffffffffffffffffffffffffffffffffffffffff\n  mul\n  not\n  and\n  swap1\n  dup4\n  0xffffffffffffffffffffffffffffffffffffffff\n  and\n  mul\n  or\n  swap1\n  sstore\n  pop\n    /* \"DeliveryEscrow.sol\":218:4991  contract DeliveryEscrow {... */\n  dataSize(sub_0)\n  dup1\n  dataOffset(sub_0)\n  0x00\n  codecopy\n  0x00\n  return\nstop\n\nsub_0: assembly {\n        /* \"DeliveryEscrow.sol\":218:4991  contract DeliveryEscrow {... */\n      mstore(0x40, 0x80)\n      jumpi(tag_1, lt(calldatasize, 0x04))\n      shr(0xe0, calldataload(0x00))\n      dup1\n      0x7249fbb6\n      gt\n      tag_10\n      jumpi\n      dup1\n      0x7249fbb6\n      eq\n      tag_6\n      jumpi\n      dup1\n      0x8da5cb5b\n      eq\n      tag_7\n      jumpi\n      dup1\n      0xcec4c855\n      eq\n      tag_8\n      jumpi\n      dup1\n      0xf023b811\n      eq\n      tag_9\n      jumpi\n      jump(tag_1)\n    tag_10:\n      dup1\n      0x2d83549c\n      eq\n      tag_2\n      jumpi\n      dup1\n      0x40975025\n      eq\n      tag_3\n      jumpi\n      dup1\n      0x49b0b54f\n      eq\n      tag_4\n      jumpi\n      dup1\n      0x67d42a8b\n      eq\n      tag_5\n      jumpi\n    tag_1:\n      revert(0x00, 0x00)\n        /* \"DeliveryEscrow.sol\":496:537  mapping(bytes32 => Escrow) public escrows */\n    tag_2:\n      callvalue\n      dup1\n      iszero\n      tag_11\n      jumpi\n      revert(0x00, 0x00)\n    tag_11:\n      pop\n      tag_12\n      0x04\n      dup1\n      calldatasize\n      sub\n      dup2\n      add\n      swap1\n      tag_13\n      swap2\n      swap1\n      tag_14\n      jump\t// in\n    tag_13:\n      tag_15\n      jump\t// in\n    tag_12:\n      mload(0x40)\n      tag_16\n      swap8\n      swap7\n      swap6\n      swap5\n      swap4\n      swap3\n      swap2\n      swap1\n      tag_17\n      jump\t// in\n    tag_16:\n      mload(0x40)\n      dup1\n      swap2\n      sub\n      swap1\n      return\n        /* \"DeliveryEscrow.sol\":4415:4989  function autoRefund(bytes32 deliveryId) external escrowExists(deliveryId) {... */\n    tag_3:\n      callvalue\n      dup1\n      iszero\n      tag_18\n      jumpi\n      revert(0x00, 0x00)\n    tag_18:\n      pop\n      tag_19\n      0x04\n      dup1\n      calldatasize\n      sub\n      dup2\n      add\n      swap1\n      tag_20\n      swap2\n      swap1\n      tag_14\n      jump\t// in\n    tag_20:\n      tag_21\n      jump\t// in\n    tag_19:\n      stop\n        /* \"DeliveryEscrow.sol\":3975:4282  function canAutoRefund(bytes32 deliveryId) external view returns (bool) {... */\n    tag_4:\n      callvalue\n      dup1\n      iszero\n      tag_22\n      jumpi\n      revert(0x00, 0x00)\n    tag_22:\n      pop\n      tag_23\n      0x04\n      dup1\n      calldatasize\n      sub\n      dup2\n      add\n      swap1\n      tag_24\n      swap2\n      swap1\n      tag_14\n      jump\t// in\n    tag_24:\n      tag_25\n      jump\t// in\n    tag_23:\n      mload(0x40)\n      tag_26\n      swap2\n      swap1\n      tag_27\n      jump\t// in\n    tag_26:\n      mload(0x40)\n      dup1\n      swap2\n      sub\n      swap1\n      return\n        /* \"DeliveryEscrow.sol\":2398:2897  function release(bytes32 deliveryId) external onlyOwner escrowExists(deliveryId) {... */\n    tag_5:\n      callvalue\n      dup1\n      iszero\n      tag_28\n      jumpi\n      revert(0x00, 0x00)\n    tag_28:\n      pop\n      tag_29\n      0x04\n      dup1\n      calldatasize\n      sub\n      dup2\n      add\n      swap1\n      tag_30\n      swap2\n      swap1\n      tag_14\n      jump\t// in\n    tag_30:\n      tag_31\n      jump\t// in\n    tag_29:\n      stop\n        /* \"DeliveryEscrow.sol\":3006:3502  function refund(bytes32 deliveryId) external onlyOwner escrowExists(deliveryId) {... */\n    tag_6:\n      callvalue\n      dup1\n      iszero\n      tag_32\n      jumpi\n      revert(0x00, 0x00)\n    tag_32:\n      pop\n      tag_33\n      0x04\n      dup1\n      calldatasize\n      sub\n      dup2\n      add\n      swap1\n      tag_34\n      swap2\n      swap1\n      tag_14\n      jump\t// in\n    tag_34:\n      tag_35\n      jump\t// in\n    tag_33:\n      stop\n        /* \"DeliveryEscrow.sol\":543:563  address public owner */\n    tag_7:\n      callvalue\n      dup1\n      iszero\n      tag_36\n      jumpi\n      revert(0x00, 0x00)\n    tag_36:\n      pop\n      tag_37\n      tag_38\n      jump\t// in\n    tag_37:\n      mload(0x40)\n      tag_39\n      swap2\n      swap1\n      tag_40\n      jump\t// in\n    tag_39:\n      mload(0x40)\n      dup1\n      swap2\n      sub\n      swap1\n      return\n        /* \"DeliveryEscrow.sol\":1536:2240  function deposit(bytes32 deliveryId, address seller) external payable {... */\n    tag_8:\n      tag_41\n      0x04\n      dup1\n      calldatasize\n      sub\n      dup2\n      add\n      swap1\n      tag_42\n      swap2\n      swap1\n      tag_43\n      jump\t// in\n    tag_42:\n      tag_44\n      jump\t// in\n    tag_41:\n      stop\n        /* \"DeliveryEscrow.sol\":3653:3773  function getEscrow(bytes32 deliveryId) external view returns (Escrow memory) {... */\n    tag_9:\n      callvalue\n      dup1\n      iszero\n      tag_45\n      jumpi\n      revert(0x00, 0x00)\n    tag_45:\n      pop\n      tag_46\n      0x04\n      dup1\n      calldatasize\n      sub\n      dup2\n      add\n      swap1\n      tag_47\n      swap2\n      swap1\n      tag_14\n      jump\t// in\n    tag_47:\n      tag_48\n      jump\t// in\n    tag_46:\n      mload(0x40)\n      tag_49\n      swap2\n      swap1\n      tag_50\n      jump\t// in\n    tag_49:\n      mload(0x40)\n      dup1\n      swap2\n      sub\n      swap1\n      return\n        /* \"DeliveryEscrow.sol\":496:537  mapping(bytes32 => Escrow) public escrows */\n    tag_15:\n      mstore(0x20, 0x00)\n      dup1\n      0x00\n      mstore\n      keccak256(0x00, 0x40)\n      0x00\n      swap2\n      pop\n      swap1\n      pop\n      dup1\n      0x00\n      add\n      0x00\n      swap1\n      sload\n      swap1\n      0x0100\n      exp\n      swap1\n      div\n      0xffffffffffffffffffffffffffffffffffffffff\n      and\n      swap1\n      dup1\n      0x01\n      add\n      0x00\n      swap1\n      sload\n      swap1\n      0x0100\n      exp\n      swap1\n      div\n      0xffffffffffffffffffffffffffffffffffffffff\n      and\n      swap1\n      dup1\n      0x02\n      add\n      sload\n      swap1\n      dup1\n      0x03\n      add\n      0x00\n      swap1\n      sload\n      swap1\n      0x0100\n      exp\n      swap1\n      div\n      0xff\n      and\n      swap1\n      dup1\n      0x03\n      add\n      0x01\n      swap1\n      sload\n      swap1\n      0x0100\n      exp\n      swap1\n      div\n      0xff\n      and\n      swap1\n      dup1\n      0x04\n      add\n      sload\n      swap1\n      dup1\n      0x05\n      add\n      sload\n      swap1\n      pop\n      dup8\n      jump\t// out\n        /* \"DeliveryEscrow.sol\":4415:4989  function autoRefund(bytes32 deliveryId) external escrowExists(deliveryId) {... */\n    tag_21:\n        /* \"DeliveryEscrow.sol\":4477:4487  deliveryId */\n      dup1\n        /* \"DeliveryEscrow.sol\":1243:1244  0 */\n      0x00\n        /* \"DeliveryEscrow.sol\":1206:1245  escrows[deliveryId].buyer != address(0) */\n      0xffffffffffffffffffffffffffffffffffffffff\n      and\n        /* \"DeliveryEscrow.sol\":1206:1213  escrows */\n      0x00\n        /* \"DeliveryEscrow.sol\":1206:1225  escrows[deliveryId] */\n      0x00\n        /* \"DeliveryEscrow.sol\":1214:1224  deliveryId */\n      dup4\n        /* \"DeliveryEscrow.sol\":1206:1225  escrows[deliveryId] */\n      dup2\n      mstore\n      0x20\n      add\n      swap1\n      dup2\n      mstore\n      0x20\n      add\n      0x00\n      keccak256\n        /* \"DeliveryEscrow.sol\":1206:1231  escrows[deliveryId].buyer */\n      0x00\n      add\n      0x00\n      swap1\n      sload\n      swap1\n      0x0100\n      exp\n      swap1\n      div\n      0xffffffffffffffffffffffffffffffffffffffff\n      and\n        /* \"DeliveryEscrow.sol\":1206:1245  escrows[deliveryId].buyer != address(0) */\n      0xffffffffffffffffffffffffffffffffffffffff\n      and\n      sub\n        /* \"DeliveryEscrow.sol\":1198:1271  require(escrows[deliveryId].buyer != address(0), \"Escrow does not exist\") */\n      tag_52\n      jumpi\n      mload(0x40)\n      0x08c379a000000000000000000000000000000000000000000000000000000000\n      dup2\n      mstore\n      0x04\n      add\n      tag_53\n      swap1\n      tag_54\n      jump\t// in\n    tag_53:\n      mload(0x40)\n      dup1\n      swap2\n      sub\n      swap1\n      revert\n    tag_52:\n        /* \"DeliveryEscrow.sol\":4499:4520  Escrow storage escrow */\n      0x00\n        /* \"DeliveryEscrow.sol\":4523:4530  escrows */\n      0x00\n        /* \"DeliveryEscrow.sol\":4523:4542  escrows[deliveryId] */\n      0x00\n        /* \"DeliveryEscrow.sol\":4531:4541  deliveryId */\n      dup5\n        /* \"DeliveryEscrow.sol\":4523:4542  escrows[deliveryId] */\n      dup2\n      mstore\n      0x20\n      add\n      swap1\n      dup2\n      mstore\n      0x20\n      add\n      0x00\n      keccak256\n        /* \"DeliveryEscrow.sol\":4499:4542  Escrow storage escrow = escrows[deliveryId] */\n      swap1\n      pop\n        /* \"DeliveryEscrow.sol\":4561:4567  escrow */\n      dup1\n        /* \"DeliveryEscrow.sol\":4561:4576  escrow.released */\n      0x03\n      add\n      0x00\n      swap1\n      sload\n      swap1\n      0x0100\n      exp\n      swap1\n      div\n      0xff\n      and\n        /* \"DeliveryEscrow.sol\":4560:4576  !escrow.released */\n      iszero\n        /* \"DeliveryEscrow.sol\":4552:4597  require(!escrow.released, \"Already released\") */\n      tag_56\n      jumpi\n      mload(0x40)\n      0x08c379a000000000000000000000000000000000000000000000000000000000\n      dup2\n      mstore\n      0x04\n      add\n      tag_57\n      swap1\n      tag_58\n      jump\t// in\n    tag_57:\n      mload(0x40)\n      dup1\n      swap2\n      sub\n      swap1\n      revert\n    tag_56:\n        /* \"DeliveryEscrow.sol\":4616:4622  escrow */\n      dup1\n        /* \"DeliveryEscrow.sol\":4616:4631  escrow.refunded */\n      0x03\n      add\n      0x01\n      swap1\n      sload\n      swap1\n      0x0100\n      exp\n      swap1\n      div\n      0xff\n      and\n        /* \"DeliveryEscrow.sol\":4615:4631  !escrow.refunded */\n      iszero\n        /* \"DeliveryEscrow.sol\":4607:4652  require(!escrow.refunded, \"Already refunded\") */\n      tag_59\n      jumpi\n      mload(0x40)\n      0x08c379a000000000000000000000000000000000000000000000000000000000\n      dup2\n      mstore\n      0x04\n      add\n      tag_60\n      swap1\n      tag_61\n      jump\t// in\n    tag_60:\n      mload(0x40)\n      dup1\n      swap2\n      sub\n      swap1\n      revert\n    tag_59:\n        /* \"DeliveryEscrow.sol\":4689:4695  escrow */\n      dup1\n        /* \"DeliveryEscrow.sol\":4689:4711  escrow.releaseDeadline */\n      0x05\n      add\n      sload\n        /* \"DeliveryEscrow.sol\":4670:4685  block.timestamp */\n      timestamp\n        /* \"DeliveryEscrow.sol\":4670:4711  block.timestamp >= escrow.releaseDeadline */\n      lt\n      iszero\n        /* \"DeliveryEscrow.sol\":4662:4736  require(block.timestamp >= escrow.releaseDeadline, \"Deadline not reached\") */\n      tag_62\n      jumpi\n      mload(0x40)\n      0x08c379a000000000000000000000000000000000000000000000000000000000\n      dup2\n      mstore\n      0x04\n      add\n      tag_63\n      swap1\n      tag_64\n      jump\t// in\n    tag_63:\n      mload(0x40)\n      dup1\n      swap2\n      sub\n      swap1\n      revert\n    tag_62:\n        /* \"DeliveryEscrow.sol\":4773:4777  true */\n      0x01\n        /* \"DeliveryEscrow.sol\":4755:4761  escrow */\n      dup2\n        /* \"DeliveryEscrow.sol\":4755:4770  escrow.refunded */\n      0x03\n      add\n      0x01\n        /* \"DeliveryEscrow.sol\":4755:4777  escrow.refunded = true */\n      0x0100\n      exp\n      dup2\n      sload\n      dup2\n      0xff\n      mul\n      not\n      and\n      swap1\n      dup4\n      iszero\n      iszero\n      mul\n      or\n      swap1\n      sstore\n      pop\n        /* \"DeliveryEscrow.sol\":4797:4809  bool success */\n      0x00\n        /* \"DeliveryEscrow.sol\":4815:4821  escrow */\n      dup2\n        /* \"DeliveryEscrow.sol\":4815:4827  escrow.buyer */\n      0x00\n      add\n      0x00\n      swap1\n      sload\n      swap1\n      0x0100\n      exp\n      swap1\n      div\n      0xffffffffffffffffffffffffffffffffffffffff\n      and\n        /* \"DeliveryEscrow.sol\":4815:4832  escrow.buyer.call */\n      0xffffffffffffffffffffffffffffffffffffffff\n      and\n        /* \"DeliveryEscrow.sol\":4840:4846  escrow */\n      dup3\n        /* \"DeliveryEscrow.sol\":4840:4853  escrow.amount */\n      0x02\n      add\n      sload\n        /* \"DeliveryEscrow.sol\":4815:4858  escrow.buyer.call{value: escrow.amount}(\"\") */\n      mload(0x40)\n      tag_65\n      swap1\n      tag_66\n      jump\t// in\n    tag_65:\n      0x00\n      mload(0x40)\n      dup1\n      dup4\n      sub\n      dup2\n      dup6\n      dup8\n      gas\n      call\n      swap3\n      pop\n      pop\n      pop\n      returndatasize\n      dup1\n      0x00\n      dup2\n      eq\n      tag_69\n      jumpi\n      mload(0x40)\n      swap2\n      pop\n      and(add(returndatasize, 0x3f), not(0x1f))\n      dup3\n      add\n      0x40\n      mstore\n      returndatasize\n      dup3\n      mstore\n      returndatasize\n      0x00\n      0x20\n      dup5\n      add\n      returndatacopy\n      jump(tag_68)\n    tag_69:\n      0x60\n      swap2\n      pop\n    tag_68:\n      pop\n        /* \"DeliveryEscrow.sol\":4796:4858  (bool success, ) = escrow.buyer.call{value: escrow.amount}(\"\") */\n      pop\n      swap1\n      pop\n        /* \"DeliveryEscrow.sol\":4876:4883  success */\n      dup1\n        /* \"DeliveryEscrow.sol\":4868:4903  require(success, \"Transfer failed\") */\n      tag_70\n      jumpi\n      mload(0x40)\n      0x08c379a000000000000000000000000000000000000000000000000000000000\n      dup2\n      mstore\n      0x04\n      add\n      tag_71\n      swap1\n      tag_72\n      jump\t// in\n    tag_71:\n      mload(0x40)\n      dup1\n      swap2\n      sub\n      swap1\n      revert\n    tag_70:\n        /* \"DeliveryEscrow.sol\":4954:4960  escrow */\n      dup2\n        /* \"DeliveryEscrow.sol\":4954:4966  escrow.buyer */\n      0x00\n      add\n      0x00\n      swap1\n      sload\n      swap1\n      0x0100\n      exp\n      swap1\n      div\n      0xffffffffffffffffffffffffffffffffffffffff\n      and\n        /* \"DeliveryEscrow.sol\":4927:4982  EscrowRefunded(deliveryId, escrow.buyer, escrow.amount) */\n      0xffffffffffffffffffffffffffffffffffffffff\n      and\n        /* \"DeliveryEscrow.sol\":4942:4952  deliveryId */\n      dup5\n        /* \"DeliveryEscrow.sol\":4927:4982  EscrowRefunded(deliveryId, escrow.buyer, escrow.amount) */\n      0xfc31a7ddbe933aa6e67f3c98c183fbc87addd2b602fcfb10238d2f85cf026617\n        /* \"DeliveryEscrow.sol\":4968:4974  escrow */\n      dup5\n        /* \"DeliveryEscrow.sol\":4968:4981  escrow.amount */\n      0x02\n      add\n      sload\n        /* \"DeliveryEscrow.sol\":4927:4982  EscrowRefunded(deliveryId, escrow.buyer, escrow.amount) */\n      mload(0x40)\n      tag_73\n      swap2\n      swap1\n      tag_74\n      jump\t// in\n    tag_73:\n      mload(0x40)\n      dup1\n      swap2\n      sub\n      swap1\n      log3\n        /* \"DeliveryEscrow.sol\":4489:4989  {... */\n      pop\n      pop\n        /* \"DeliveryEscrow.sol\":4415:4989  function autoRefund(bytes32 deliveryId) external escrowExists(deliveryId) {... */\n      pop\n      pop\n      jump\t// out\n        /* \"DeliveryEscrow.sol\":3975:4282  function canAutoRefund(bytes32 deliveryId) external view returns (bool) {... */\n    tag_25:\n        /* \"DeliveryEscrow.sol\":4041:4045  bool */\n      0x00\n        /* \"DeliveryEscrow.sol\":4057:4078  Escrow storage escrow */\n      0x00\n        /* \"DeliveryEscrow.sol\":4081:4088  escrows */\n      0x00\n        /* \"DeliveryEscrow.sol\":4081:4100  escrows[deliveryId] */\n      0x00\n        /* \"DeliveryEscrow.sol\":4089:4099  deliveryId */\n      dup5\n        /* \"DeliveryEscrow.sol\":4081:4100  escrows[deliveryId] */\n      dup2\n      mstore\n      0x20\n      add\n      swap1\n      dup2\n      mstore\n      0x20\n      add\n      0x00\n      keccak256\n        /* \"DeliveryEscrow.sol\":4057:4100  Escrow storage escrow = escrows[deliveryId] */\n      swap1\n      pop\n        /* \"DeliveryEscrow.sol\":4118:4124  escrow */\n      dup1\n        /* \"DeliveryEscrow.sol\":4118:4133  escrow.released */\n      0x03\n      add\n      0x00\n      swap1\n      sload\n      swap1\n      0x0100\n      exp\n      swap1\n      div\n      0xff\n      and\n        /* \"DeliveryEscrow.sol\":4117:4133  !escrow.released */\n      iszero\n        /* \"DeliveryEscrow.sol\":4117:4169  !escrow.released && ... */\n      dup1\n      iszero\n      tag_76\n      jumpi\n      pop\n        /* \"DeliveryEscrow.sol\":4154:4160  escrow */\n      dup1\n        /* \"DeliveryEscrow.sol\":4154:4169  escrow.refunded */\n      0x03\n      add\n      0x01\n      swap1\n      sload\n      swap1\n      0x0100\n      exp\n      swap1\n      div\n      0xff\n      and\n        /* \"DeliveryEscrow.sol\":4153:4169  !escrow.refunded */\n      iszero\n        /* \"DeliveryEscrow.sol\":4117:4169  !escrow.released && ... */\n    tag_76:\n        /* \"DeliveryEscrow.sol\":4117:4215  !escrow.released && ... */\n      dup1\n      iszero\n      tag_77\n      jumpi\n      pop\n        /* \"DeliveryEscrow.sol\":4213:4214  0 */\n      0x00\n        /* \"DeliveryEscrow.sol\":4189:4215  escrow.buyer != address(0) */\n      0xffffffffffffffffffffffffffffffffffffffff\n      and\n        /* \"DeliveryEscrow.sol\":4189:4195  escrow */\n      dup2\n        /* \"DeliveryEscrow.sol\":4189:4201  escrow.buyer */\n      0x00\n      add\n      0x00\n      swap1\n      sload\n      swap1\n      0x0100\n      exp\n      swap1\n      div\n      0xffffffffffffffffffffffffffffffffffffffff\n      and\n        /* \"DeliveryEscrow.sol\":4189:4215  escrow.buyer != address(0) */\n      0xffffffffffffffffffffffffffffffffffffffff\n      and\n      eq\n      iszero\n        /* \"DeliveryEscrow.sol\":4117:4215  !escrow.released && ... */\n    tag_77:\n        /* \"DeliveryEscrow.sol\":4117:4275  !escrow.released && ... */\n      dup1\n      iszero\n      tag_78\n      jumpi\n      pop\n        /* \"DeliveryEscrow.sol\":4253:4259  escrow */\n      dup1\n        /* \"DeliveryEscrow.sol\":4253:4275  escrow.releaseDeadline */\n      0x05\n      add\n      sload\n        /* \"DeliveryEscrow.sol\":4234:4249  block.timestamp */\n      timestamp\n        /* \"DeliveryEscrow.sol\":4234:4275  block.timestamp >= escrow.releaseDeadline */\n      lt\n      iszero\n        /* \"DeliveryEscrow.sol\":4117:4275  !escrow.released && ... */\n    tag_78:\n        /* \"DeliveryEscrow.sol\":4110:4275  return !escrow.released && ... */\n      swap2\n      pop\n      pop\n        /* \"DeliveryEscrow.sol\":3975:4282  function canAutoRefund(bytes32 deliveryId) external view returns (bool) {... */\n      swap2\n      swap1\n      pop\n      jump\t// out\n        /* \"DeliveryEscrow.sol\":2398:2897  function release(bytes32 deliveryId) external onlyOwner escrowExists(deliveryId) {... */\n    tag_31:\n        /* \"DeliveryEscrow.sol\":1094:1099  owner */\n      0x01\n      0x00\n      swap1\n      sload\n      swap1\n      0x0100\n      exp\n      swap1\n      div\n      0xffffffffffffffffffffffffffffffffffffffff\n      and\n        /* \"DeliveryEscrow.sol\":1080:1099  msg.sender == owner */\n      0xffffffffffffffffffffffffffffffffffffffff\n      and\n        /* \"DeliveryEscrow.sol\":1080:1090  msg.sender */\n      caller\n        /* \"DeliveryEscrow.sol\":1080:1099  msg.sender == owner */\n      0xffffffffffffffffffffffffffffffffffffffff\n      and\n      eq\n        /* \"DeliveryEscrow.sol\":1072:1118  require(msg.sender == owner, \"Not authorized\") */\n      tag_80\n      jumpi\n      mload(0x40)\n      0x08c379a000000000000000000000000000000000000000000000000000000000\n      dup2\n      mstore\n      0x04\n      add\n      tag_81\n      swap1\n      tag_82\n      jump\t// in\n    tag_81:\n      mload(0x40)\n      dup1\n      swap2\n      sub\n      swap1\n      revert\n    tag_80:\n        /* \"DeliveryEscrow.sol\":2467:2477  deliveryId */\n      dup1\n        /* \"DeliveryEscrow.sol\":1243:1244  0 */\n      0x00\n        /* \"DeliveryEscrow.sol\":1206:1245  escrows[deliveryId].buyer != address(0) */\n      0xffffffffffffffffffffffffffffffffffffffff\n      and\n        /* \"DeliveryEscrow.sol\":1206:1213  escrows */\n      0x00\n        /* \"DeliveryEscrow.sol\":1206:1225  escrows[deliveryId] */\n      0x00\n        /* \"DeliveryEscrow.sol\":1214:1224  deliveryId */\n      dup4\n        /* \"DeliveryEscrow.sol\":1206:1225  escrows[deliveryId] */\n      dup2\n      mstore\n      0x20\n      add\n      swap1\n      dup2\n      mstore\n      0x20\n      add\n      0x00\n      keccak256\n        /* \"DeliveryEscrow.sol\":1206:1231  escrows[deliveryId].buyer */\n      0x00\n      add\n      0x00\n      swap1\n      sload\n      swap1\n      0x0100\n      exp\n      swap1\n      div\n      0xffffffffffffffffffffffffffffffffffffffff\n      and\n        /* \"DeliveryEscrow.sol\":1206:1245  escrows[deliveryId].buyer != address(0) */\n      0xffffffffffffffffffffffffffffffffffffffff\n      and\n      sub\n        /* \"DeliveryEscrow.sol\":1198:1271  require(escrows[deliveryId].buyer != address(0), \"Escrow does not exist\") */\n      tag_84\n      jumpi\n      mload(0x40)\n      0x08c379a000000000000000000000000000000000000000000000000000000000\n      dup2\n      mstore\n      0x04\n      add\n      tag_85\n      swap1\n      tag_54\n      jump\t// in\n    tag_85:\n      mload(0x40)\n      dup1\n      swap2\n      sub\n      swap1\n      revert\n    tag_84:\n        /* \"DeliveryEscrow.sol\":2489:2510  Escrow storage escrow */\n      0x00\n        /* \"DeliveryEscrow.sol\":2513:2520  escrows */\n      0x00\n        /* \"DeliveryEscrow.sol\":2513:2532  escrows[deliveryId] */\n      0x00\n        /* \"DeliveryEscrow.sol\":2521:2531  deliveryId */\n      dup5\n        /* \"DeliveryEscrow.sol\":2513:2532  escrows[deliveryId] */\n      dup2\n      mstore\n      0x20\n      add\n      swap1\n      dup2\n      mstore\n      0x20\n      add\n      0x00\n      keccak256\n        /* \"DeliveryEscrow.sol\":2489:2532  Escrow storage escrow = escrows[deliveryId] */\n      swap1\n      pop\n        /* \"DeliveryEscrow.sol\":2551:2557  escrow */\n      dup1\n        /* \"DeliveryEscrow.sol\":2551:2566  escrow.released */\n      0x03\n      add\n      0x00\n      swap1\n      sload\n      swap1\n      0x0100\n      exp\n      swap1\n      div\n      0xff\n      and\n        /* \"DeliveryEscrow.sol\":2550:2566  !escrow.released */\n      iszero\n        /* \"DeliveryEscrow.sol\":2542:2587  require(!escrow.released, \"Already released\") */\n      tag_87\n      jumpi\n      mload(0x40)\n      0x08c379a000000000000000000000000000000000000000000000000000000000\n      dup2\n      mstore\n      0x04\n      add\n      tag_88\n      swap1\n      tag_58\n      jump\t// in\n    tag_88:\n      mload(0x40)\n      dup1\n      swap2\n      sub\n      swap1\n      revert\n    tag_87:\n        /* \"DeliveryEscrow.sol\":2606:2612  escrow */\n      dup1\n        /* \"DeliveryEscrow.sol\":2606:2621  escrow.refunded */\n      0x03\n      add\n      0x01\n      swap1\n      sload\n      swap1\n      0x0100\n      exp\n      swap1\n      div\n      0xff\n      and\n        /* \"DeliveryEscrow.sol\":2605:2621  !escrow.refunded */\n      iszero\n        /* \"DeliveryEscrow.sol\":2597:2642  require(!escrow.refunded, \"Already refunded\") */\n      tag_89\n      jumpi\n      mload(0x40)\n      0x08c379a000000000000000000000000000000000000000000000000000000000\n      dup2\n      mstore\n      0x04\n      add\n      tag_90\n      swap1\n      tag_61\n      jump\t// in\n    tag_90:\n      mload(0x40)\n      dup1\n      swap2\n      sub\n      swap1\n      revert\n    tag_89:\n        /* \"DeliveryEscrow.sol\":2679:2683  true */\n      0x01\n        /* \"DeliveryEscrow.sol\":2661:2667  escrow */\n      dup2\n        /* \"DeliveryEscrow.sol\":2661:2676  escrow.released */\n      0x03\n      add\n      0x00\n        /* \"DeliveryEscrow.sol\":2661:2683  escrow.released = true */\n      0x0100\n      exp\n      dup2\n      sload\n      dup2\n      0xff\n      mul\n      not\n      and\n      swap1\n      dup4\n      iszero\n      iszero\n      mul\n      or\n      swap1\n      sstore\n      pop\n        /* \"DeliveryEscrow.sol\":2703:2715  bool success */\n      0x00\n        /* \"DeliveryEscrow.sol\":2721:2727  escrow */\n      dup2\n        /* \"DeliveryEscrow.sol\":2721:2734  escrow.seller */\n      0x01\n      add\n      0x00\n      swap1\n      sload\n      swap1\n      0x0100\n      exp\n      swap1\n      div\n      0xffffffffffffffffffffffffffffffffffffffff\n      and\n        /* \"DeliveryEscrow.sol\":2721:2739  escrow.seller.call */\n      0xffffffffffffffffffffffffffffffffffffffff\n      and\n        /* \"DeliveryEscrow.sol\":2747:2753  escrow */\n      dup3\n        /* \"DeliveryEscrow.sol\":2747:2760  escrow.amount */\n      0x02\n      add\n      sload\n        /* \"DeliveryEscrow.sol\":2721:2765  escrow.seller.call{value: escrow.amount}(\"\") */\n      mload(0x40)\n      tag_91\n      swap1\n      tag_66\n      jump\t// in\n    tag_91:\n      0x00\n      mload(0x40)\n      dup1\n      dup4\n      sub\n      dup2\n      dup6\n      dup8\n      gas\n      call\n      swap3\n      pop\n      pop\n      pop\n      returndatasize\n      dup1\n      0x00\n      dup2\n      eq\n      tag_94\n      jumpi\n      mload(0x40)\n      swap2\n      pop\n      and(add(returndatasize, 0x3f), not(0x1f))\n      dup3\n      add\n      0x40\n      mstore\n      returndatasize\n      dup3\n      mstore\n      returndatasize\n      0x00\n      0x20\n      dup5\n      add\n      returndatacopy\n      jump(tag_93)\n    tag_94:\n      0x60\n      swap2\n      pop\n    tag_93:\n      pop\n        /* \"DeliveryEscrow.sol\":2702:2765  (bool success, ) = escrow.seller.call{value: escrow.amount}(\"\") */\n      pop\n      swap1\n      pop\n        /* \"DeliveryEscrow.sol\":2783:2790  success */\n      dup1\n        /* \"DeliveryEscrow.sol\":2775:2810  require(success, \"Transfer failed\") */\n      tag_95\n      jumpi\n      mload(0x40)\n      0x08c379a000000000000000000000000000000000000000000000000000000000\n      dup2\n      mstore\n      0x04\n      add\n      tag_96\n      swap1\n      tag_72\n      jump\t// in\n    tag_96:\n      mload(0x40)\n      dup1\n      swap2\n      sub\n      swap1\n      revert\n    tag_95:\n        /* \"DeliveryEscrow.sol\":2861:2867  escrow */\n      dup2\n        /* \"DeliveryEscrow.sol\":2861:2874  escrow.seller */\n      0x01\n      add\n      0x00\n      swap1\n      sload\n      swap1\n      0x0100\n      exp\n      swap1\n      div\n      0xffffffffffffffffffffffffffffffffffffffff\n      and\n        /* \"DeliveryEscrow.sol\":2834:2890  EscrowReleased(deliveryId, escrow.seller, escrow.amount) */\n      0xffffffffffffffffffffffffffffffffffffffff\n      and\n        /* \"DeliveryEscrow.sol\":2849:2859  deliveryId */\n      dup5\n        /* \"DeliveryEscrow.sol\":2834:2890  EscrowReleased(deliveryId, escrow.seller, escrow.amount) */\n      0x3a9c1cd29cd3be251a72ce3c367c27dc1cb697ac4589965b76a83f9a25ca0710\n        /* \"DeliveryEscrow.sol\":2876:2882  escrow */\n      dup5\n        /* \"DeliveryEscrow.sol\":2876:2889  escrow.amount */\n      0x02\n      add\n      sload\n        /* \"DeliveryEscrow.sol\":2834:2890  EscrowReleased(deliveryId, escrow.seller, escrow.amount) */\n      mload(0x40)\n      tag_97\n      swap2\n      swap1\n      tag_74\n      jump\t// in\n    tag_97:\n      mload(0x40)\n      dup1\n      swap2\n      sub\n      swap1\n      log3\n        /* \"DeliveryEscrow.sol\":2479:2897  {... */\n      pop\n      pop\n        /* \"DeliveryEscrow.sol\":1128:1129  _ */\n      pop\n        /* \"DeliveryEscrow.sol\":2398:2897  function release(bytes32 deliveryId) external onlyOwner escrowExists(deliveryId) {... */\n      pop\n      jump\t// out\n        /* \"DeliveryEscrow.sol\":3006:3502  function refund(bytes32 deliveryId) external onlyOwner escrowExists(deliveryId) {... */\n    tag_35:\n        /* \"DeliveryEscrow.sol\":1094:1099  owner */\n      0x01\n      0x00\n      swap1\n      sload\n      swap1\n      0x0100\n      exp\n      swap1\n      div\n      0xffffffffffffffffffffffffffffffffffffffff\n      and\n        /* \"DeliveryEscrow.sol\":1080:1099  msg.sender == owner */\n      0xffffffffffffffffffffffffffffffffffffffff\n      and\n        /* \"DeliveryEscrow.sol\":1080:1090  msg.sender */\n      caller\n        /* \"DeliveryEscrow.sol\":1080:1099  msg.sender == owner */\n      0xffffffffffffffffffffffffffffffffffffffff\n      and\n      eq\n        /* \"DeliveryEscrow.sol\":1072:1118  require(msg.sender == owner, \"Not authorized\") */\n      tag_99\n      jumpi\n      mload(0x40)\n      0x08c379a000000000000000000000000000000000000000000000000000000000\n      dup2\n      mstore\n      0x04\n      add\n      tag_100\n      swap1\n      tag_82\n      jump\t// in\n    tag_100:\n      mload(0x40)\n      dup1\n      swap2\n      sub\n      swap1\n      revert\n    tag_99:\n        /* \"DeliveryEscrow.sol\":3074:3084  deliveryId */\n      dup1\n        /* \"DeliveryEscrow.sol\":1243:1244  0 */\n      0x00\n        /* \"DeliveryEscrow.sol\":1206:1245  escrows[deliveryId].buyer != address(0) */\n      0xffffffffffffffffffffffffffffffffffffffff\n      and\n        /* \"DeliveryEscrow.sol\":1206:1213  escrows */\n      0x00\n        /* \"DeliveryEscrow.sol\":1206:1225  escrows[deliveryId] */\n      0x00\n        /* \"DeliveryEscrow.sol\":1214:1224  deliveryId */\n      dup4\n        /* \"DeliveryEscrow.sol\":1206:1225  escrows[deliveryId] */\n      dup2\n      mstore\n      0x20\n      add\n      swap1\n      dup2\n      mstore\n      0x20\n      add\n      0x00\n      keccak256\n        /* \"DeliveryEscrow.sol\":1206:1231  escrows[deliveryId].buyer */\n      0x00\n      add\n      0x00\n      swap1\n      sload\n      swap1\n      0x0100\n      exp\n      swap1\n      div\n      0xffffffffffffffffffffffffffffffffffffffff\n      and\n        /* \"DeliveryEscrow.sol\":1206:1245  escrows[deliveryId].buyer != address(0) */\n      0xffffffffffffffffffffffffffffffffffffffff\n      and\n      sub\n        /* \"DeliveryEscrow.sol\":1198:1271  require(escrows[deliveryId].buyer != address(0), \"Escrow does not exist\") */\n      tag_102\n      jumpi\n      mload(0x40)\n      0x08c379a000000000000000000000000000000000000000000000000000000000\n      dup2\n      mstore\n      0x04\n      add\n      tag_103\n      swap1\n      tag_54\n      jump\t// in\n    tag_103:\n      mload(0x40)\n      dup1\n      swap2\n      sub\n      swap1\n      revert\n    tag_102:\n        /* \"DeliveryEscrow.sol\":3096:3117  Escrow storage escrow */\n      0x00\n        /* \"DeliveryEscrow.sol\":3120:3127  escrows */\n      0x00\n        /* \"DeliveryEscrow.sol\":3120:3139  escrows[deliveryId] */\n      0x00\n        /* \"DeliveryEscrow.sol\":3128:3138  deliveryId */\n      dup5\n        /* \"DeliveryEscrow.sol\":3120:3139  escrows[deliveryId] */\n      dup2\n      mstore\n      0x20\n      add\n      swap1\n      dup2\n      mstore\n      0x20\n      add\n      0x00\n      keccak256\n        /* \"DeliveryEscrow.sol\":3096:3139  Escrow storage escrow = escrows[deliveryId] */\n      swap1\n      pop\n        /* \"DeliveryEscrow.sol\":3158:3164  escrow */\n      dup1\n        /* \"DeliveryEscrow.sol\":3158:3173  escrow.released */\n      0x03\n      add\n      0x00\n      swap1\n      sload\n      swap1\n      0x0100\n      exp\n      swap1\n      div\n      0xff\n      and\n        /* \"DeliveryEscrow.sol\":3157:3173  !escrow.released */\n      iszero\n        /* \"DeliveryEscrow.sol\":3149:3194  require(!escrow.released, \"Already released\") */\n      tag_105\n      jumpi\n      mload(0x40)\n      0x08c379a000000000000000000000000000000000000000000000000000000000\n      dup2\n      mstore\n      0x04\n      add\n      tag_106\n      swap1\n      tag_58\n      jump\t// in\n    tag_106:\n      mload(0x40)\n      dup1\n      swap2\n      sub\n      swap1\n      revert\n    tag_105:\n        /* \"DeliveryEscrow.sol\":3213:3219  escrow */\n      dup1\n        /* \"DeliveryEscrow.sol\":3213:3228  escrow.refunded */\n      0x03\n      add\n      0x01\n      swap1\n      sload\n      swap1\n      0x0100\n      exp\n      swap1\n      div\n      0xff\n      and\n        /* \"DeliveryEscrow.sol\":3212:3228  !escrow.refunded */\n      iszero\n        /* \"DeliveryEscrow.sol\":3204:3249  require(!escrow.refunded, \"Already refunded\") */\n      tag_107\n      jumpi\n      mload(0x40)\n      0x08c379a000000000000000000000000000000000000000000000000000000000\n      dup2\n      mstore\n      0x04\n      add\n      tag_108\n      swap1\n      tag_61\n      jump\t// in\n    tag_108:\n      mload(0x40)\n      dup1\n      swap2\n      sub\n      swap1\n      revert\n    tag_107:\n        /* \"DeliveryEscrow.sol\":3286:3290  true */\n      0x01\n        /* \"DeliveryEscrow.sol\":3268:3274  escrow */\n      dup2\n        /* \"DeliveryEscrow.sol\":3268:3283  escrow.refunded */\n      0x03\n      add\n      0x01\n        /* \"DeliveryEscrow.sol\":3268:3290  escrow.refunded = true */\n      0x0100\n      exp\n      dup2\n      sload\n      dup2\n      0xff\n      mul\n      not\n      and\n      swap1\n      dup4\n      iszero\n      iszero\n      mul\n      or\n      swap1\n      sstore\n      pop\n        /* \"DeliveryEscrow.sol\":3310:3322  bool success */\n      0x00\n        /* \"DeliveryEscrow.sol\":3328:3334  escrow */\n      dup2\n        /* \"DeliveryEscrow.sol\":3328:3340  escrow.buyer */\n      0x00\n      add\n      0x00\n      swap1\n      sload\n      swap1\n      0x0100\n      exp\n      swap1\n      div\n      0xffffffffffffffffffffffffffffffffffffffff\n      and\n        /* \"DeliveryEscrow.sol\":3328:3345  escrow.buyer.call */\n      0xffffffffffffffffffffffffffffffffffffffff\n      and\n        /* \"DeliveryEscrow.sol\":3353:3359  escrow */\n      dup3\n        /* \"DeliveryEscrow.sol\":3353:3366  escrow.amount */\n      0x02\n      add\n      sload\n        /* \"DeliveryEscrow.sol\":3328:3371  escrow.buyer.call{value: escrow.amount}(\"\") */\n      mload(0x40)\n      tag_109\n      swap1\n      tag_66\n      jump\t// in\n    tag_109:\n      0x00\n      mload(0x40)\n      dup1\n      dup4\n      sub\n      dup2\n      dup6\n      dup8\n      gas\n      call\n      swap3\n      pop\n      pop\n      pop\n      returndatasize\n      dup1\n      0x00\n      dup2\n      eq\n      tag_112\n      jumpi\n      mload(0x40)\n      swap2\n      pop\n      and(add(returndatasize, 0x3f), not(0x1f))\n      dup3\n      add\n      0x40\n      mstore\n      returndatasize\n      dup3\n      mstore\n      returndatasize\n      0x00\n      0x20\n      dup5\n      add\n      returndatacopy\n      jump(tag_111)\n    tag_112:\n      0x60\n      swap2\n      pop\n    tag_111:\n      pop\n        /* \"DeliveryEscrow.sol\":3309:3371  (bool success, ) = escrow.buyer.call{value: escrow.amount}(\"\") */\n      pop\n      swap1\n      pop\n        /* \"DeliveryEscrow.sol\":3389:3396  success */\n      dup1\n        /* \"DeliveryEscrow.sol\":3381:3416  require(success, \"Transfer failed\") */\n      tag_113\n      jumpi\n      mload(0x40)\n      0x08c379a000000000000000000000000000000000000000000000000000000000\n      dup2\n      mstore\n      0x04\n      add\n      tag_114\n      swap1\n      tag_72\n      jump\t// in\n    tag_114:\n      mload(0x40)\n      dup1\n      swap2\n      sub\n      swap1\n      revert\n    tag_113:\n        /* \"DeliveryEscrow.sol\":3467:3473  escrow */\n      dup2\n        /* \"DeliveryEscrow.sol\":3467:3479  escrow.buyer */\n      0x00\n      add\n      0x00\n      swap1\n      sload\n      swap1\n      0x0100\n      exp\n      swap1\n      div\n      0xffffffffffffffffffffffffffffffffffffffff\n      and\n        /* \"DeliveryEscrow.sol\":3440:3495  EscrowRefunded(deliveryId, escrow.buyer, escrow.amount) */\n      0xffffffffffffffffffffffffffffffffffffffff\n      and\n        /* \"DeliveryEscrow.sol\":3455:3465  deliveryId */\n      dup5\n        /* \"DeliveryEscrow.sol\":3440:3495  EscrowRefunded(deliveryId, escrow.buyer, escrow.amount) */\n      0xfc31a7ddbe933aa6e67f3c98c183fbc87addd2b602fcfb10238d2f85cf026617\n        /* \"DeliveryEscrow.sol\":3481:3487  escrow */\n      dup5\n        /* \"DeliveryEscrow.sol\":3481:3494  escrow.amount */\n      0x02\n      add\n      sload\n        /* \"DeliveryEscrow.sol\":3440:3495  EscrowRefunded(deliveryId, escrow.buyer, escrow.amount) */\n      mload(0x40)\n      tag_115\n      swap2\n      swap1\n      tag_74\n      jump\t// in\n    tag_115:\n      mload(0x40)\n      dup1\n      swap2\n      sub\n      swap1\n      log3\n        /* \"DeliveryEscrow.sol\":3086:3502  {... */\n      pop\n      pop\n        /* \"DeliveryEscrow.sol\":1128:1129  _ */\n      pop\n        /* \"DeliveryEscrow.sol\":3006:3502  function refund(bytes32 deliveryId) external onlyOwner escrowExists(deliveryId) {... */\n      pop\n      jump\t// out\n        /* \"DeliveryEscrow.sol\":543:563  address public owner */\n    tag_38:\n      0x01\n      0x00\n      swap1\n      sload\n      swap1\n      0x0100\n      exp\n      swap1\n      div\n      0xffffffffffffffffffffffffffffffffffffffff\n      and\n      dup2\n      jump\t// out\n        /* \"DeliveryEscrow.sol\":1536:2240  function deposit(bytes32 deliveryId, address seller) external payable {... */\n    tag_44:\n        /* \"DeliveryEscrow.sol\":1636:1637  0 */\n      0x00\n        /* \"DeliveryEscrow.sol\":1624:1633  msg.value */\n      callvalue\n        /* \"DeliveryEscrow.sol\":1624:1637  msg.value > 0 */\n      gt\n        /* \"DeliveryEscrow.sol\":1616:1671  require(msg.value > 0, \"Amount must be greater than 0\") */\n      tag_117\n      jumpi\n      mload(0x40)\n      0x08c379a000000000000000000000000000000000000000000000000000000000\n      dup2\n      mstore\n      0x04\n      add\n      tag_118\n      swap1\n      tag_119\n      jump\t// in\n    tag_118:\n      mload(0x40)\n      dup1\n      swap2\n      sub\n      swap1\n      revert\n    tag_117:\n        /* \"DeliveryEscrow.sol\":1707:1708  0 */\n      0x00\n        /* \"DeliveryEscrow.sol\":1689:1709  seller != address(0) */\n      0xffffffffffffffffffffffffffffffffffffffff\n      and\n        /* \"DeliveryEscrow.sol\":1689:1695  seller */\n      dup2\n        /* \"DeliveryEscrow.sol\":1689:1709  seller != address(0) */\n      0xffffffffffffffffffffffffffffffffffffffff\n      and\n      sub\n        /* \"DeliveryEscrow.sol\":1681:1736  require(seller != address(0), \"Invalid seller address\") */\n      tag_120\n      jumpi\n      mload(0x40)\n      0x08c379a000000000000000000000000000000000000000000000000000000000\n      dup2\n      mstore\n      0x04\n      add\n      tag_121\n      swap1\n      tag_122\n      jump\t// in\n    tag_121:\n      mload(0x40)\n      dup1\n      swap2\n      sub\n      swap1\n      revert\n    tag_120:\n        /* \"DeliveryEscrow.sol\":1791:1792  0 */\n      0x00\n        /* \"DeliveryEscrow.sol\":1754:1793  escrows[deliveryId].buyer == address(0) */\n      0xffffffffffffffffffffffffffffffffffffffff\n      and\n        /* \"DeliveryEscrow.sol\":1754:1761  escrows */\n      0x00\n        /* \"DeliveryEscrow.sol\":1754:1773  escrows[deliveryId] */\n      0x00\n        /* \"DeliveryEscrow.sol\":1762:1772  deliveryId */\n      dup5\n        /* \"DeliveryEscrow.sol\":1754:1773  escrows[deliveryId] */\n      dup2\n      mstore\n      0x20\n      add\n      swap1\n      dup2\n      mstore\n      0x20\n      add\n      0x00\n      keccak256\n        /* \"DeliveryEscrow.sol\":1754:1779  escrows[deliveryId].buyer */\n      0x00\n      add\n      0x00\n      swap1\n      sload\n      swap1\n      0x0100\n      exp\n      swap1\n      div\n      0xffffffffffffffffffffffffffffffffffffffff\n      and\n        /* \"DeliveryEscrow.sol\":1754:1793  escrows[deliveryId].buyer == address(0) */\n      0xffffffffffffffffffffffffffffffffffffffff\n      and\n      eq\n        /* \"DeliveryEscrow.sol\":1746:1819  require(escrows[deliveryId].buyer == address(0), \"Escrow already exists\") */\n      tag_123\n      jumpi\n      mload(0x40)\n      0x08c379a000000000000000000000000000000000000000000000000000000000\n      dup2\n      mstore\n      0x04\n      add\n      tag_124\n      swap1\n      tag_125\n      jump\t// in\n    tag_124:\n      mload(0x40)\n      dup1\n      swap2\n      sub\n      swap1\n      revert\n    tag_123:\n        /* \"DeliveryEscrow.sol\":1860:2153  Escrow({... */\n      mload(0x40)\n      dup1\n      0xe0\n      add\n      0x40\n      mstore\n      dup1\n        /* \"DeliveryEscrow.sol\":1888:1898  msg.sender */\n      caller\n        /* \"DeliveryEscrow.sol\":1860:2153  Escrow({... */\n      0xffffffffffffffffffffffffffffffffffffffff\n      and\n      dup2\n      mstore\n      0x20\n      add\n        /* \"DeliveryEscrow.sol\":1920:1926  seller */\n      dup3\n        /* \"DeliveryEscrow.sol\":1860:2153  Escrow({... */\n      0xffffffffffffffffffffffffffffffffffffffff\n      and\n      dup2\n      mstore\n      0x20\n      add\n        /* \"DeliveryEscrow.sol\":1948:1957  msg.value */\n      callvalue\n        /* \"DeliveryEscrow.sol\":1860:2153  Escrow({... */\n      dup2\n      mstore\n      0x20\n      add\n        /* \"DeliveryEscrow.sol\":1981:1986  false */\n      0x00\n        /* \"DeliveryEscrow.sol\":1860:2153  Escrow({... */\n      iszero\n      iszero\n      dup2\n      mstore\n      0x20\n      add\n        /* \"DeliveryEscrow.sol\":2010:2015  false */\n      0x00\n        /* \"DeliveryEscrow.sol\":1860:2153  Escrow({... */\n      iszero\n      iszero\n      dup2\n      mstore\n      0x20\n      add\n        /* \"DeliveryEscrow.sol\":2040:2055  block.timestamp */\n      timestamp\n        /* \"DeliveryEscrow.sol\":1860:2153  Escrow({... */\n      dup2\n      mstore\n      0x20\n      add\n        /* \"DeliveryEscrow.sol\":2104:2111  30 days */\n      0x278d00\n        /* \"DeliveryEscrow.sol\":2086:2101  block.timestamp */\n      timestamp\n        /* \"DeliveryEscrow.sol\":2086:2111  block.timestamp + 30 days */\n      tag_126\n      swap2\n      swap1\n      tag_127\n      jump\t// in\n    tag_126:\n        /* \"DeliveryEscrow.sol\":1860:2153  Escrow({... */\n      dup2\n      mstore\n      pop\n        /* \"DeliveryEscrow.sol\":1838:1845  escrows */\n      0x00\n        /* \"DeliveryEscrow.sol\":1838:1857  escrows[deliveryId] */\n      0x00\n        /* \"DeliveryEscrow.sol\":1846:1856  deliveryId */\n      dup5\n        /* \"DeliveryEscrow.sol\":1838:1857  escrows[deliveryId] */\n      dup2\n      mstore\n      0x20\n      add\n      swap1\n      dup2\n      mstore\n      0x20\n      add\n      0x00\n      keccak256\n        /* \"DeliveryEscrow.sol\":1838:2153  escrows[deliveryId] = Escrow({... */\n      0x00\n      dup3\n      add\n      mload\n      dup2\n      0x00\n      add\n      exp(0x0100, 0x00)\n      dup2\n      sload\n      dup2\n      0xffffffffffffffffffffffffffffffffffffffff\n      mul\n      not\n      and\n      swap1\n      dup4\n      0xffffffffffffffffffffffffffffffffffffffff\n      and\n      mul\n      or\n      swap1\n      sstore\n      pop\n      0x20\n      dup3\n      add\n      mload\n      dup2\n      0x01\n      add\n      exp(0x0100, 0x00)\n      dup2\n      sload\n      dup2\n      0xffffffffffffffffffffffffffffffffffffffff\n      mul\n      not\n      and\n      swap1\n      dup4\n      0xffffffffffffffffffffffffffffffffffffffff\n      and\n      mul\n      or\n      swap1\n      sstore\n      pop\n      0x40\n      dup3\n      add\n      mload\n      dup2\n      0x02\n      add\n      sstore\n      0x60\n      dup3\n      add\n      mload\n      dup2\n      0x03\n      add\n      exp(0x0100, 0x00)\n      dup2\n      sload\n      dup2\n      0xff\n      mul\n      not\n      and\n      swap1\n      dup4\n      iszero\n      iszero\n      mul\n      or\n      swap1\n      sstore\n      pop\n      0x80\n      dup3\n      add\n      mload\n      dup2\n      0x03\n      add\n      exp(0x0100, 0x01)\n      dup2\n      sload\n      dup2\n      0xff\n      mul\n      not\n      and\n      swap1\n      dup4\n      iszero\n      iszero\n      mul\n      or\n      swap1\n      sstore\n      pop\n      0xa0\n      dup3\n      add\n      mload\n      dup2\n      0x04\n      add\n      sstore\n      0xc0\n      dup3\n      add\n      mload\n      dup2\n      0x05\n      add\n      sstore\n      swap1\n      pop\n      pop\n        /* \"DeliveryEscrow.sol\":2215:2221  seller */\n      dup1\n        /* \"DeliveryEscrow.sol\":2177:2233  EscrowCreated(deliveryId, msg.sender, seller, msg.value) */\n      0xffffffffffffffffffffffffffffffffffffffff\n      and\n        /* \"DeliveryEscrow.sol\":2203:2213  msg.sender */\n      caller\n        /* \"DeliveryEscrow.sol\":2177:2233  EscrowCreated(deliveryId, msg.sender, seller, msg.value) */\n      0xffffffffffffffffffffffffffffffffffffffff\n      and\n        /* \"DeliveryEscrow.sol\":2191:2201  deliveryId */\n      dup4\n        /* \"DeliveryEscrow.sol\":2177:2233  EscrowCreated(deliveryId, msg.sender, seller, msg.value) */\n      0x0dd968c277d9dc6b36b6ec2b638324c3d937882c64ca109440bc050ebf26cb07\n        /* \"DeliveryEscrow.sol\":2223:2232  msg.value */\n      callvalue\n        /* \"DeliveryEscrow.sol\":2177:2233  EscrowCreated(deliveryId, msg.sender, seller, msg.value) */\n      mload(0x40)\n      tag_128\n      swap2\n      swap1\n      tag_74\n      jump\t// in\n    tag_128:\n      mload(0x40)\n      dup1\n      swap2\n      sub\n      swap1\n      log4\n        /* \"DeliveryEscrow.sol\":1536:2240  function deposit(bytes32 deliveryId, address seller) external payable {... */\n      pop\n      pop\n      jump\t// out\n        /* \"DeliveryEscrow.sol\":3653:3773  function getEscrow(bytes32 deliveryId) external view returns (Escrow memory) {... */\n    tag_48:\n        /* \"DeliveryEscrow.sol\":3715:3728  Escrow memory */\n      tag_129\n      tag_130\n      jump\t// in\n    tag_129:\n        /* \"DeliveryEscrow.sol\":3747:3754  escrows */\n      0x00\n        /* \"DeliveryEscrow.sol\":3747:3766  escrows[deliveryId] */\n      0x00\n        /* \"DeliveryEscrow.sol\":3755:3765  deliveryId */\n      dup4\n        /* \"DeliveryEscrow.sol\":3747:3766  escrows[deliveryId] */\n      dup2\n      mstore\n      0x20\n      add\n      swap1\n      dup2\n      mstore\n      0x20\n      add\n      0x00\n      keccak256\n        /* \"DeliveryEscrow.sol\":3740:3766  return escrows[deliveryId] */\n      mload(0x40)\n      dup1\n      0xe0\n      add\n      0x40\n      mstore\n      swap1\n      dup2\n      0x00\n      dup3\n      add\n      0x00\n      swap1\n      sload\n      swap1\n      0x0100\n      exp\n      swap1\n      div\n      0xffffffffffffffffffffffffffffffffffffffff\n      and\n      0xffffffffffffffffffffffffffffffffffffffff\n      and\n      0xffffffffffffffffffffffffffffffffffffffff\n      and\n      dup2\n      mstore\n      0x20\n      add\n      0x01\n      dup3\n      add\n      0x00\n      swap1\n      sload\n      swap1\n      0x0100\n      exp\n      swap1\n      div\n      0xffffffffffffffffffffffffffffffffffffffff\n      and\n      0xffffffffffffffffffffffffffffffffffffffff\n      and\n      0xffffffffffffffffffffffffffffffffffffffff\n      and\n      dup2\n      mstore\n      0x20\n      add\n      0x02\n      dup3\n      add\n      sload\n      dup2\n      mstore\n      0x20\n      add\n      0x03\n      dup3\n      add\n      0x00\n      swap1\n      sload\n      swap1\n      0x0100\n      exp\n      swap1\n      div\n      0xff\n      and\n      iszero\n      iszero\n      iszero\n      iszero\n      dup2\n      mstore\n      0x20\n      add\n      0x03\n      dup3\n      add\n      0x01\n      swap1\n      sload\n      swap1\n      0x0100\n      exp\n      swap1\n      div\n      0xff\n      and\n      iszero\n      iszero\n      iszero\n      iszero\n      dup2\n      mstore\n      0x20\n      add\n      0x04\n      dup3\n      add\n      sload\n      dup2\n      mstore\n      0x20\n      add\n      0x05\n      dup3\n      add\n      sload\n      dup2\n      mstore\n      pop\n      pop\n      swap1\n      pop\n        /* \"DeliveryEscrow.sol\":3653:3773  function getEscrow(bytes32 deliveryId) external view returns (Escrow memory) {... */\n      swap2\n      swap1\n      pop\n      jump\t// out\n    tag_130:\n      mload(0x40)\n      dup1\n      0xe0\n      add\n      0x40\n      mstore\n      dup1\n      and(0xffffffffffffffffffffffffffffffffffffffff, 0x00)\n      dup2\n      mstore\n      0x20\n      add\n      and(0xffffffffffffffffffffffffffffffffffffffff, 0x00)\n      dup2\n      mstore\n      0x20\n      add\n      0x00\n      dup2\n      mstore\n      0x20\n      add\n      iszero(iszero(0x00))\n      dup2\n      mstore\n      0x20\n      add\n      iszero(iszero(0x00))\n      dup2\n      mstore\n      0x20\n      add\n      0x00\n      dup2\n      mstore\n      0x20\n      add\n      0x00\n      dup2\n      mstore\n      pop\n      swap1\n      jump\t// out\n        /* \"#utility.yul\":88:205   */\n    tag_133:\n        /* \"#utility.yul\":197:198   */\n      0x00\n        /* \"#utility.yul\":194:195   */\n      0x00\n        /* \"#utility.yul\":187:199   */\n      revert\n        /* \"#utility.yul\":334:411   */\n    tag_135:\n        /* \"#utility.yul\":371:378   */\n      0x00\n        /* \"#utility.yul\":400:405   */\n      dup2\n        /* \"#utility.yul\":389:405   */\n      swap1\n      pop\n        /* \"#utility.yul\":334:411   */\n      swap2\n      swap1\n      pop\n      jump\t// out\n        /* \"#utility.yul\":417:539   */\n    tag_136:\n        /* \"#utility.yul\":490:514   */\n      tag_180\n        /* \"#utility.yul\":508:513   */\n      dup2\n        /* \"#utility.yul\":490:514   */\n      tag_135\n      jump\t// in\n    tag_180:\n        /* \"#utility.yul\":483:488   */\n      dup2\n        /* \"#utility.yul\":480:515   */\n      eq\n        /* \"#utility.yul\":470:533   */\n      tag_181\n      jumpi\n        /* \"#utility.yul\":529:530   */\n      0x00\n        /* \"#utility.yul\":526:527   */\n      0x00\n        /* \"#utility.yul\":519:531   */\n      revert\n        /* \"#utility.yul\":470:533   */\n    tag_181:\n        /* \"#utility.yul\":417:539   */\n      pop\n      jump\t// out\n        /* \"#utility.yul\":545:684   */\n    tag_137:\n        /* \"#utility.yul\":591:596   */\n      0x00\n        /* \"#utility.yul\":629:635   */\n      dup2\n        /* \"#utility.yul\":616:636   */\n      calldataload\n        /* \"#utility.yul\":607:636   */\n      swap1\n      pop\n        /* \"#utility.yul\":645:678   */\n      tag_183\n        /* \"#utility.yul\":672:677   */\n      dup2\n        /* \"#utility.yul\":645:678   */\n      tag_136\n      jump\t// in\n    tag_183:\n        /* \"#utility.yul\":545:684   */\n      swap3\n      swap2\n      pop\n      pop\n      jump\t// out\n        /* \"#utility.yul\":690:1019   */\n    tag_14:\n        /* \"#utility.yul\":749:755   */\n      0x00\n        /* \"#utility.yul\":798:800   */\n      0x20\n        /* \"#utility.yul\":786:795   */\n      dup3\n        /* \"#utility.yul\":777:784   */\n      dup5\n        /* \"#utility.yul\":773:796   */\n      sub\n        /* \"#utility.yul\":769:801   */\n      slt\n        /* \"#utility.yul\":766:885   */\n      iszero\n      tag_185\n      jumpi\n        /* \"#utility.yul\":804:883   */\n      tag_186\n      tag_133\n      jump\t// in\n    tag_186:\n        /* \"#utility.yul\":766:885   */\n    tag_185:\n        /* \"#utility.yul\":924:925   */\n      0x00\n        /* \"#utility.yul\":949:1002   */\n      tag_187\n        /* \"#utility.yul\":994:1001   */\n      dup5\n        /* \"#utility.yul\":985:991   */\n      dup3\n        /* \"#utility.yul\":974:983   */\n      dup6\n        /* \"#utility.yul\":970:992   */\n      add\n        /* \"#utility.yul\":949:1002   */\n      tag_137\n      jump\t// in\n    tag_187:\n        /* \"#utility.yul\":939:1002   */\n      swap2\n      pop\n        /* \"#utility.yul\":895:1012   */\n      pop\n        /* \"#utility.yul\":690:1019   */\n      swap3\n      swap2\n      pop\n      pop\n      jump\t// out\n        /* \"#utility.yul\":1025:1151   */\n    tag_138:\n        /* \"#utility.yul\":1062:1069   */\n      0x00\n        /* \"#utility.yul\":1102:1144   */\n      0xffffffffffffffffffffffffffffffffffffffff\n        /* \"#utility.yul\":1095:1100   */\n      dup3\n        /* \"#utility.yul\":1091:1145   */\n      and\n        /* \"#utility.yul\":1080:1145   */\n      swap1\n      pop\n        /* \"#utility.yul\":1025:1151   */\n      swap2\n      swap1\n      pop\n      jump\t// out\n        /* \"#utility.yul\":1157:1253   */\n    tag_139:\n        /* \"#utility.yul\":1194:1201   */\n      0x00\n        /* \"#utility.yul\":1223:1247   */\n      tag_190\n        /* \"#utility.yul\":1241:1246   */\n      dup3\n        /* \"#utility.yul\":1223:1247   */\n      tag_138\n      jump\t// in\n    tag_190:\n        /* \"#utility.yul\":1212:1247   */\n      swap1\n      pop\n        /* \"#utility.yul\":1157:1253   */\n      swap2\n      swap1\n      pop\n      jump\t// out\n        /* \"#utility.yul\":1259:1377   */\n    tag_140:\n        /* \"#utility.yul\":1346:1370   */\n      tag_192\n        /* \"#utility.yul\":1364:1369   */\n      dup2\n        /* \"#utility.yul\":1346:1370   */\n      tag_139\n      jump\t// in\n    tag_192:\n        /* \"#utility.yul\":1341:1344   */\n      dup3\n        /* \"#utility.yul\":1334:1371   */\n      mstore\n        /* \"#utility.yul\":1259:1377   */\n      pop\n      pop\n      jump\t// out\n        /* \"#utility.yul\":1383:1460   */\n    tag_141:\n        /* \"#utility.yul\":1420:1427   */\n      0x00\n        /* \"#utility.yul\":1449:1454   */\n      dup2\n        /* \"#utility.yul\":1438:1454   */\n      swap1\n      pop\n        /* \"#utility.yul\":1383:1460   */\n      swap2\n      swap1\n      pop\n      jump\t// out\n        /* \"#utility.yul\":1466:1584   */\n    tag_142:\n        /* \"#utility.yul\":1553:1577   */\n      tag_195\n        /* \"#utility.yul\":1571:1576   */\n      dup2\n        /* \"#utility.yul\":1553:1577   */\n      tag_141\n      jump\t// in\n    tag_195:\n        /* \"#utility.yul\":1548:1551   */\n      dup3\n        /* \"#utility.yul\":1541:1578   */\n      mstore\n        /* \"#utility.yul\":1466:1584   */\n      pop\n      pop\n      jump\t// out\n        /* \"#utility.yul\":1590:1680   */\n    tag_143:\n        /* \"#utility.yul\":1624:1631   */\n      0x00\n        /* \"#utility.yul\":1667:1672   */\n      dup2\n        /* \"#utility.yul\":1660:1673   */\n      iszero\n        /* \"#utility.yul\":1653:1674   */\n      iszero\n        /* \"#utility.yul\":1642:1674   */\n      swap1\n      pop\n        /* \"#utility.yul\":1590:1680   */\n      swap2\n      swap1\n      pop\n      jump\t// out\n        /* \"#utility.yul\":1686:1795   */\n    tag_144:\n        /* \"#utility.yul\":1767:1788   */\n      tag_198\n        /* \"#utility.yul\":1782:1787   */\n      dup2\n        /* \"#utility.yul\":1767:1788   */\n      tag_143\n      jump\t// in\n    tag_198:\n        /* \"#utility.yul\":1762:1765   */\n      dup3\n        /* \"#utility.yul\":1755:1789   */\n      mstore\n        /* \"#utility.yul\":1686:1795   */\n      pop\n      pop\n      jump\t// out\n        /* \"#utility.yul\":1801:2663   */\n    tag_17:\n        /* \"#utility.yul\":2050:2054   */\n      0x00\n        /* \"#utility.yul\":2088:2091   */\n      0xe0\n        /* \"#utility.yul\":2077:2086   */\n      dup3\n        /* \"#utility.yul\":2073:2092   */\n      add\n        /* \"#utility.yul\":2065:2092   */\n      swap1\n      pop\n        /* \"#utility.yul\":2102:2173   */\n      tag_200\n        /* \"#utility.yul\":2170:2171   */\n      0x00\n        /* \"#utility.yul\":2159:2168   */\n      dup4\n        /* \"#utility.yul\":2155:2172   */\n      add\n        /* \"#utility.yul\":2146:2152   */\n      dup11\n        /* \"#utility.yul\":2102:2173   */\n      tag_140\n      jump\t// in\n    tag_200:\n        /* \"#utility.yul\":2183:2255   */\n      tag_201\n        /* \"#utility.yul\":2251:2253   */\n      0x20\n        /* \"#utility.yul\":2240:2249   */\n      dup4\n        /* \"#utility.yul\":2236:2254   */\n      add\n        /* \"#utility.yul\":2227:2233   */\n      dup10\n        /* \"#utility.yul\":2183:2255   */\n      tag_140\n      jump\t// in\n    tag_201:\n        /* \"#utility.yul\":2265:2337   */\n      tag_202\n        /* \"#utility.yul\":2333:2335   */\n      0x40\n        /* \"#utility.yul\":2322:2331   */\n      dup4\n        /* \"#utility.yul\":2318:2336   */\n      add\n        /* \"#utility.yul\":2309:2315   */\n      dup9\n        /* \"#utility.yul\":2265:2337   */\n      tag_142\n      jump\t// in\n    tag_202:\n        /* \"#utility.yul\":2347:2413   */\n      tag_203\n        /* \"#utility.yul\":2409:2411   */\n      0x60\n        /* \"#utility.yul\":2398:2407   */\n      dup4\n        /* \"#utility.yul\":2394:2412   */\n      add\n        /* \"#utility.yul\":2385:2391   */\n      dup8\n        /* \"#utility.yul\":2347:2413   */\n      tag_144\n      jump\t// in\n    tag_203:\n        /* \"#utility.yul\":2423:2490   */\n      tag_204\n        /* \"#utility.yul\":2485:2488   */\n      0x80\n        /* \"#utility.yul\":2474:2483   */\n      dup4\n        /* \"#utility.yul\":2470:2489   */\n      add\n        /* \"#utility.yul\":2461:2467   */\n      dup7\n        /* \"#utility.yul\":2423:2490   */\n      tag_144\n      jump\t// in\n    tag_204:\n        /* \"#utility.yul\":2500:2573   */\n      tag_205\n        /* \"#utility.yul\":2568:2571   */\n      0xa0\n        /* \"#utility.yul\":2557:2566   */\n      dup4\n        /* \"#utility.yul\":2553:2572   */\n      add\n        /* \"#utility.yul\":2544:2550   */\n      dup6\n        /* \"#utility.yul\":2500:2573   */\n      tag_142\n      jump\t// in\n    tag_205:\n        /* \"#utility.yul\":2583:2656   */\n      tag_206\n        /* \"#utility.yul\":2651:2654   */\n      0xc0\n        /* \"#utility.yul\":2640:2649   */\n      dup4\n        /* \"#utility.yul\":2636:2655   */\n      add\n        /* \"#utility.yul\":2627:2633   */\n      dup5\n        /* \"#utility.yul\":2583:2656   */\n      tag_142\n      jump\t// in\n    tag_206:\n        /* \"#utility.yul\":1801:2663   */\n      swap9\n      swap8\n      pop\n      pop\n      pop\n      pop\n      pop\n      pop\n      pop\n      pop\n      jump\t// out\n        /* \"#utility.yul\":2669:2879   */\n    tag_27:\n        /* \"#utility.yul\":2756:2760   */\n      0x00\n        /* \"#utility.yul\":2794:2796   */\n      0x20\n        /* \"#utility.yul\":2783:2792   */\n      dup3\n        /* \"#utility.yul\":2779:2797   */\n      add\n        /* \"#utility.yul\":2771:2797   */\n      swap1\n      pop\n        /* \"#utility.yul\":2807:2872   */\n      tag_208\n        /* \"#utility.yul\":2869:2870   */\n      0x00\n        /* \"#utility.yul\":2858:2867   */\n      dup4\n        /* \"#utility.yul\":2854:2871   */\n      add\n        /* \"#utility.yul\":2845:2851   */\n      dup5\n        /* \"#utility.yul\":2807:2872   */\n      tag_144\n      jump\t// in\n    tag_208:\n        /* \"#utility.yul\":2669:2879   */\n      swap3\n      swap2\n      pop\n      pop\n      jump\t// out\n        /* \"#utility.yul\":2885:3107   */\n    tag_40:\n        /* \"#utility.yul\":2978:2982   */\n      0x00\n        /* \"#utility.yul\":3016:3018   */\n      0x20\n        /* \"#utility.yul\":3005:3014   */\n      dup3\n        /* \"#utility.yul\":3001:3019   */\n      add\n        /* \"#utility.yul\":2993:3019   */\n      swap1\n      pop\n        /* \"#utility.yul\":3029:3100   */\n      tag_210\n        /* \"#utility.yul\":3097:3098   */\n      0x00\n        /* \"#utility.yul\":3086:3095   */\n      dup4\n        /* \"#utility.yul\":3082:3099   */\n      add\n        /* \"#utility.yul\":3073:3079   */\n      dup5\n        /* \"#utility.yul\":3029:3100   */\n      tag_140\n      jump\t// in\n    tag_210:\n        /* \"#utility.yul\":2885:3107   */\n      swap3\n      swap2\n      pop\n      pop\n      jump\t// out\n        /* \"#utility.yul\":3113:3235   */\n    tag_145:\n        /* \"#utility.yul\":3186:3210   */\n      tag_212\n        /* \"#utility.yul\":3204:3209   */\n      dup2\n        /* \"#utility.yul\":3186:3210   */\n      tag_139\n      jump\t// in\n    tag_212:\n        /* \"#utility.yul\":3179:3184   */\n      dup2\n        /* \"#utility.yul\":3176:3211   */\n      eq\n        /* \"#utility.yul\":3166:3229   */\n      tag_213\n      jumpi\n        /* \"#utility.yul\":3225:3226   */\n      0x00\n        /* \"#utility.yul\":3222:3223   */\n      0x00\n        /* \"#utility.yul\":3215:3227   */\n      revert\n        /* \"#utility.yul\":3166:3229   */\n    tag_213:\n        /* \"#utility.yul\":3113:3235   */\n      pop\n      jump\t// out\n        /* \"#utility.yul\":3241:3380   */\n    tag_146:\n        /* \"#utility.yul\":3287:3292   */\n      0x00\n        /* \"#utility.yul\":3325:3331   */\n      dup2\n        /* \"#utility.yul\":3312:3332   */\n      calldataload\n        /* \"#utility.yul\":3303:3332   */\n      swap1\n      pop\n        /* \"#utility.yul\":3341:3374   */\n      tag_215\n        /* \"#utility.yul\":3368:3373   */\n      dup2\n        /* \"#utility.yul\":3341:3374   */\n      tag_145\n      jump\t// in\n    tag_215:\n        /* \"#utility.yul\":3241:3380   */\n      swap3\n      swap2\n      pop\n      pop\n      jump\t// out\n        /* \"#utility.yul\":3386:3860   */\n    tag_43:\n        /* \"#utility.yul\":3454:3460   */\n      0x00\n        /* \"#utility.yul\":3462:3468   */\n      0x00\n        /* \"#utility.yul\":3511:3513   */\n      0x40\n        /* \"#utility.yul\":3499:3508   */\n      dup4\n        /* \"#utility.yul\":3490:3497   */\n      dup6\n        /* \"#utility.yul\":3486:3509   */\n      sub\n        /* \"#utility.yul\":3482:3514   */\n      slt\n        /* \"#utility.yul\":3479:3598   */\n      iszero\n      tag_217\n      jumpi\n        /* \"#utility.yul\":3517:3596   */\n      tag_218\n      tag_133\n      jump\t// in\n    tag_218:\n        /* \"#utility.yul\":3479:3598   */\n    tag_217:\n        /* \"#utility.yul\":3637:3638   */\n      0x00\n        /* \"#utility.yul\":3662:3715   */\n      tag_219\n        /* \"#utility.yul\":3707:3714   */\n      dup6\n        /* \"#utility.yul\":3698:3704   */\n      dup3\n        /* \"#utility.yul\":3687:3696   */\n      dup7\n        /* \"#utility.yul\":3683:3705   */\n      add\n        /* \"#utility.yul\":3662:3715   */\n      tag_137\n      jump\t// in\n    tag_219:\n        /* \"#utility.yul\":3652:3715   */\n      swap3\n      pop\n        /* \"#utility.yul\":3608:3725   */\n      pop\n        /* \"#utility.yul\":3764:3766   */\n      0x20\n        /* \"#utility.yul\":3790:3843   */\n      tag_220\n        /* \"#utility.yul\":3835:3842   */\n      dup6\n        /* \"#utility.yul\":3826:3832   */\n      dup3\n        /* \"#utility.yul\":3815:3824   */\n      dup7\n        /* \"#utility.yul\":3811:3833   */\n      add\n        /* \"#utility.yul\":3790:3843   */\n      tag_146\n      jump\t// in\n    tag_220:\n        /* \"#utility.yul\":3780:3843   */\n      swap2\n      pop\n        /* \"#utility.yul\":3735:3853   */\n      pop\n        /* \"#utility.yul\":3386:3860   */\n      swap3\n      pop\n      swap3\n      swap1\n      pop\n      jump\t// out\n        /* \"#utility.yul\":3866:3974   */\n    tag_147:\n        /* \"#utility.yul\":3943:3967   */\n      tag_222\n        /* \"#utility.yul\":3961:3966   */\n      dup2\n        /* \"#utility.yul\":3943:3967   */\n      tag_139\n      jump\t// in\n    tag_222:\n        /* \"#utility.yul\":3938:3941   */\n      dup3\n        /* \"#utility.yul\":3931:3968   */\n      mstore\n        /* \"#utility.yul\":3866:3974   */\n      pop\n      pop\n      jump\t// out\n        /* \"#utility.yul\":3980:4088   */\n    tag_148:\n        /* \"#utility.yul\":4057:4081   */\n      tag_224\n        /* \"#utility.yul\":4075:4080   */\n      dup2\n        /* \"#utility.yul\":4057:4081   */\n      tag_141\n      jump\t// in\n    tag_224:\n        /* \"#utility.yul\":4052:4055   */\n      dup3\n        /* \"#utility.yul\":4045:4082   */\n      mstore\n        /* \"#utility.yul\":3980:4088   */\n      pop\n      pop\n      jump\t// out\n        /* \"#utility.yul\":4094:4193   */\n    tag_149:\n        /* \"#utility.yul\":4165:4186   */\n      tag_226\n        /* \"#utility.yul\":4180:4185   */\n      dup2\n        /* \"#utility.yul\":4165:4186   */\n      tag_143\n      jump\t// in\n    tag_226:\n        /* \"#utility.yul\":4160:4163   */\n      dup3\n        /* \"#utility.yul\":4153:4187   */\n      mstore\n        /* \"#utility.yul\":4094:4193   */\n      pop\n      pop\n      jump\t// out\n        /* \"#utility.yul\":4267:5655   */\n    tag_150:\n        /* \"#utility.yul\":4408:4412   */\n      0xe0\n        /* \"#utility.yul\":4403:4406   */\n      dup3\n        /* \"#utility.yul\":4399:4413   */\n      add\n        /* \"#utility.yul\":4496:4500   */\n      0x00\n        /* \"#utility.yul\":4489:4494   */\n      dup3\n        /* \"#utility.yul\":4485:4501   */\n      add\n        /* \"#utility.yul\":4479:4502   */\n      mload\n        /* \"#utility.yul\":4515:4578   */\n      tag_228\n        /* \"#utility.yul\":4572:4576   */\n      0x00\n        /* \"#utility.yul\":4567:4570   */\n      dup6\n        /* \"#utility.yul\":4563:4577   */\n      add\n        /* \"#utility.yul\":4549:4561   */\n      dup3\n        /* \"#utility.yul\":4515:4578   */\n      tag_147\n      jump\t// in\n    tag_228:\n        /* \"#utility.yul\":4423:4588   */\n      pop\n        /* \"#utility.yul\":4672:4676   */\n      0x20\n        /* \"#utility.yul\":4665:4670   */\n      dup3\n        /* \"#utility.yul\":4661:4677   */\n      add\n        /* \"#utility.yul\":4655:4678   */\n      mload\n        /* \"#utility.yul\":4691:4754   */\n      tag_229\n        /* \"#utility.yul\":4748:4752   */\n      0x20\n        /* \"#utility.yul\":4743:4746   */\n      dup6\n        /* \"#utility.yul\":4739:4753   */\n      add\n        /* \"#utility.yul\":4725:4737   */\n      dup3\n        /* \"#utility.yul\":4691:4754   */\n      tag_147\n      jump\t// in\n    tag_229:\n        /* \"#utility.yul\":4598:4764   */\n      pop\n        /* \"#utility.yul\":4848:4852   */\n      0x40\n        /* \"#utility.yul\":4841:4846   */\n      dup3\n        /* \"#utility.yul\":4837:4853   */\n      add\n        /* \"#utility.yul\":4831:4854   */\n      mload\n        /* \"#utility.yul\":4867:4930   */\n      tag_230\n        /* \"#utility.yul\":4924:4928   */\n      0x40\n        /* \"#utility.yul\":4919:4922   */\n      dup6\n        /* \"#utility.yul\":4915:4929   */\n      add\n        /* \"#utility.yul\":4901:4913   */\n      dup3\n        /* \"#utility.yul\":4867:4930   */\n      tag_148\n      jump\t// in\n    tag_230:\n        /* \"#utility.yul\":4774:4940   */\n      pop\n        /* \"#utility.yul\":5026:5030   */\n      0x60\n        /* \"#utility.yul\":5019:5024   */\n      dup3\n        /* \"#utility.yul\":5015:5031   */\n      add\n        /* \"#utility.yul\":5009:5032   */\n      mload\n        /* \"#utility.yul\":5045:5102   */\n      tag_231\n        /* \"#utility.yul\":5096:5100   */\n      0x60\n        /* \"#utility.yul\":5091:5094   */\n      dup6\n        /* \"#utility.yul\":5087:5101   */\n      add\n        /* \"#utility.yul\":5073:5085   */\n      dup3\n        /* \"#utility.yul\":5045:5102   */\n      tag_149\n      jump\t// in\n    tag_231:\n        /* \"#utility.yul\":4950:5112   */\n      pop\n        /* \"#utility.yul\":5198:5202   */\n      0x80\n        /* \"#utility.yul\":5191:5196   */\n      dup3\n        /* \"#utility.yul\":5187:5203   */\n      add\n        /* \"#utility.yul\":5181:5204   */\n      mload\n        /* \"#utility.yul\":5217:5274   */\n      tag_232\n        /* \"#utility.yul\":5268:5272   */\n      0x80\n        /* \"#utility.yul\":5263:5266   */\n      dup6\n        /* \"#utility.yul\":5259:5273   */\n      add\n        /* \"#utility.yul\":5245:5257   */\n      dup3\n        /* \"#utility.yul\":5217:5274   */\n      tag_149\n      jump\t// in\n    tag_232:\n        /* \"#utility.yul\":5122:5284   */\n      pop\n        /* \"#utility.yul\":5371:5375   */\n      0xa0\n        /* \"#utility.yul\":5364:5369   */\n      dup3\n        /* \"#utility.yul\":5360:5376   */\n      add\n        /* \"#utility.yul\":5354:5377   */\n      mload\n        /* \"#utility.yul\":5390:5453   */\n      tag_233\n        /* \"#utility.yul\":5447:5451   */\n      0xa0\n        /* \"#utility.yul\":5442:5445   */\n      dup6\n        /* \"#utility.yul\":5438:5452   */\n      add\n        /* \"#utility.yul\":5424:5436   */\n      dup3\n        /* \"#utility.yul\":5390:5453   */\n      tag_148\n      jump\t// in\n    tag_233:\n        /* \"#utility.yul\":5294:5463   */\n      pop\n        /* \"#utility.yul\":5556:5560   */\n      0xc0\n        /* \"#utility.yul\":5549:5554   */\n      dup3\n        /* \"#utility.yul\":5545:5561   */\n      add\n        /* \"#utility.yul\":5539:5562   */\n      mload\n        /* \"#utility.yul\":5575:5638   */\n      tag_234\n        /* \"#utility.yul\":5632:5636   */\n      0xc0\n        /* \"#utility.yul\":5627:5630   */\n      dup6\n        /* \"#utility.yul\":5623:5637   */\n      add\n        /* \"#utility.yul\":5609:5621   */\n      dup3\n        /* \"#utility.yul\":5575:5638   */\n      tag_148\n      jump\t// in\n    tag_234:\n        /* \"#utility.yul\":5473:5648   */\n      pop\n        /* \"#utility.yul\":4377:5655   */\n      pop\n        /* \"#utility.yul\":4267:5655   */\n      pop\n      pop\n      jump\t// out\n        /* \"#utility.yul\":5661:5972   */\n    tag_50:\n        /* \"#utility.yul\":5798:5802   */\n      0x00\n        /* \"#utility.yul\":5836:5839   */\n      0xe0\n        /* \"#utility.yul\":5825:5834   */\n      dup3\n        /* \"#utility.yul\":5821:5840   */\n      add\n        /* \"#utility.yul\":5813:5840   */\n      swap1\n      pop\n        /* \"#utility.yul\":5850:5965   */\n      tag_236\n        /* \"#utility.yul\":5962:5963   */\n      0x00\n        /* \"#utility.yul\":5951:5960   */\n      dup4\n        /* \"#utility.yul\":5947:5964   */\n      add\n        /* \"#utility.yul\":5938:5944   */\n      dup5\n        /* \"#utility.yul\":5850:5965   */\n      tag_150\n      jump\t// in\n    tag_236:\n        /* \"#utility.yul\":5661:5972   */\n      swap3\n      swap2\n      pop\n      pop\n      jump\t// out\n        /* \"#utility.yul\":5978:6147   */\n    tag_151:\n        /* \"#utility.yul\":6062:6073   */\n      0x00\n        /* \"#utility.yul\":6096:6102   */\n      dup3\n        /* \"#utility.yul\":6091:6094   */\n      dup3\n        /* \"#utility.yul\":6084:6103   */\n      mstore\n        /* \"#utility.yul\":6136:6140   */\n      0x20\n        /* \"#utility.yul\":6131:6134   */\n      dup3\n        /* \"#utility.yul\":6127:6141   */\n      add\n        /* \"#utility.yul\":6112:6141   */\n      swap1\n      pop\n        /* \"#utility.yul\":5978:6147   */\n      swap3\n      swap2\n      pop\n      pop\n      jump\t// out\n        /* \"#utility.yul\":6153:6324   */\n    tag_152:\n        /* \"#utility.yul\":6293:6316   */\n      0x457363726f7720646f6573206e6f742065786973740000000000000000000000\n        /* \"#utility.yul\":6289:6290   */\n      0x00\n        /* \"#utility.yul\":6281:6287   */\n      dup3\n        /* \"#utility.yul\":6277:6291   */\n      add\n        /* \"#utility.yul\":6270:6317   */\n      mstore\n        /* \"#utility.yul\":6153:6324   */\n      pop\n      jump\t// out\n        /* \"#utility.yul\":6330:6696   */\n    tag_153:\n        /* \"#utility.yul\":6472:6475   */\n      0x00\n        /* \"#utility.yul\":6493:6560   */\n      tag_240\n        /* \"#utility.yul\":6557:6559   */\n      0x15\n        /* \"#utility.yul\":6552:6555   */\n      dup4\n        /* \"#utility.yul\":6493:6560   */\n      tag_151\n      jump\t// in\n    tag_240:\n        /* \"#utility.yul\":6486:6560   */\n      swap2\n      pop\n        /* \"#utility.yul\":6569:6662   */\n      tag_241\n        /* \"#utility.yul\":6658:6661   */\n      dup3\n        /* \"#utility.yul\":6569:6662   */\n      tag_152\n      jump\t// in\n    tag_241:\n        /* \"#utility.yul\":6687:6689   */\n      0x20\n        /* \"#utility.yul\":6682:6685   */\n      dup3\n        /* \"#utility.yul\":6678:6690   */\n      add\n        /* \"#utility.yul\":6671:6690   */\n      swap1\n      pop\n        /* \"#utility.yul\":6330:6696   */\n      swap2\n      swap1\n      pop\n      jump\t// out\n        /* \"#utility.yul\":6702:7121   */\n    tag_54:\n        /* \"#utility.yul\":6868:6872   */\n      0x00\n        /* \"#utility.yul\":6906:6908   */\n      0x20\n        /* \"#utility.yul\":6895:6904   */\n      dup3\n        /* \"#utility.yul\":6891:6909   */\n      add\n        /* \"#utility.yul\":6883:6909   */\n      swap1\n      pop\n        /* \"#utility.yul\":6955:6964   */\n      dup2\n        /* \"#utility.yul\":6949:6953   */\n      dup2\n        /* \"#utility.yul\":6945:6965   */\n      sub\n        /* \"#utility.yul\":6941:6942   */\n      0x00\n        /* \"#utility.yul\":6930:6939   */\n      dup4\n        /* \"#utility.yul\":6926:6943   */\n      add\n        /* \"#utility.yul\":6919:6966   */\n      mstore\n        /* \"#utility.yul\":6983:7114   */\n      tag_243\n        /* \"#utility.yul\":7109:7113   */\n      dup2\n        /* \"#utility.yul\":6983:7114   */\n      tag_153\n      jump\t// in\n    tag_243:\n        /* \"#utility.yul\":6975:7114   */\n      swap1\n      pop\n        /* \"#utility.yul\":6702:7121   */\n      swap2\n      swap1\n      pop\n      jump\t// out\n        /* \"#utility.yul\":7127:7293   */\n    tag_154:\n        /* \"#utility.yul\":7267:7285   */\n      0x416c72656164792072656c656173656400000000000000000000000000000000\n        /* \"#utility.yul\":7263:7264   */\n      0x00\n        /* \"#utility.yul\":7255:7261   */\n      dup3\n        /* \"#utility.yul\":7251:7265   */\n      add\n        /* \"#utility.yul\":7244:7286   */\n      mstore\n        /* \"#utility.yul\":7127:7293   */\n      pop\n      jump\t// out\n        /* \"#utility.yul\":7299:7665   */\n    tag_155:\n        /* \"#utility.yul\":7441:7444   */\n      0x00\n        /* \"#utility.yul\":7462:7529   */\n      tag_246\n        /* \"#utility.yul\":7526:7528   */\n      0x10\n        /* \"#utility.yul\":7521:7524   */\n      dup4\n        /* \"#utility.yul\":7462:7529   */\n      tag_151\n      jump\t// in\n    tag_246:\n        /* \"#utility.yul\":7455:7529   */\n      swap2\n      pop\n        /* \"#utility.yul\":7538:7631   */\n      tag_247\n        /* \"#utility.yul\":7627:7630   */\n      dup3\n        /* \"#utility.yul\":7538:7631   */\n      tag_154\n      jump\t// in\n    tag_247:\n        /* \"#utility.yul\":7656:7658   */\n      0x20\n        /* \"#utility.yul\":7651:7654   */\n      dup3\n        /* \"#utility.yul\":7647:7659   */\n      add\n        /* \"#utility.yul\":7640:7659   */\n      swap1\n      pop\n        /* \"#utility.yul\":7299:7665   */\n      swap2\n      swap1\n      pop\n      jump\t// out\n        /* \"#utility.yul\":7671:8090   */\n    tag_58:\n        /* \"#utility.yul\":7837:7841   */\n      0x00\n        /* \"#utility.yul\":7875:7877   */\n      0x20\n        /* \"#utility.yul\":7864:7873   */\n      dup3\n        /* \"#utility.yul\":7860:7878   */\n      add\n        /* \"#utility.yul\":7852:7878   */\n      swap1\n      pop\n        /* \"#utility.yul\":7924:7933   */\n      dup2\n        /* \"#utility.yul\":7918:7922   */\n      dup2\n        /* \"#utility.yul\":7914:7934   */\n      sub\n        /* \"#utility.yul\":7910:7911   */\n      0x00\n        /* \"#utility.yul\":7899:7908   */\n      dup4\n        /* \"#utility.yul\":7895:7912   */\n      add\n        /* \"#utility.yul\":7888:7935   */\n      mstore\n        /* \"#utility.yul\":7952:8083   */\n      tag_249\n        /* \"#utility.yul\":8078:8082   */\n      dup2\n        /* \"#utility.yul\":7952:8083   */\n      tag_155\n      jump\t// in\n    tag_249:\n        /* \"#utility.yul\":7944:8083   */\n      swap1\n      pop\n        /* \"#utility.yul\":7671:8090   */\n      swap2\n      swap1\n      pop\n      jump\t// out\n        /* \"#utility.yul\":8096:8262   */\n    tag_156:\n        /* \"#utility.yul\":8236:8254   */\n      0x416c726561647920726566756e64656400000000000000000000000000000000\n        /* \"#utility.yul\":8232:8233   */\n      0x00\n        /* \"#utility.yul\":8224:8230   */\n      dup3\n        /* \"#utility.yul\":8220:8234   */\n      add\n        /* \"#utility.yul\":8213:8255   */\n      mstore\n        /* \"#utility.yul\":8096:8262   */\n      pop\n      jump\t// out\n        /* \"#utility.yul\":8268:8634   */\n    tag_157:\n        /* \"#utility.yul\":8410:8413   */\n      0x00\n        /* \"#utility.yul\":8431:8498   */\n      tag_252\n        /* \"#utility.yul\":8495:8497   */\n      0x10\n        /* \"#utility.yul\":8490:8493   */\n      dup4\n        /* \"#utility.yul\":8431:8498   */\n      tag_151\n      jump\t// in\n    tag_252:\n        /* \"#utility.yul\":8424:8498   */\n      swap2\n      pop\n        /* \"#utility.yul\":8507:8600   */\n      tag_253\n        /* \"#utility.yul\":8596:8599   */\n      dup3\n        /* \"#utility.yul\":8507:8600   */\n      tag_156\n      jump\t// in\n    tag_253:\n        /* \"#utility.yul\":8625:8627   */\n      0x20\n        /* \"#utility.yul\":8620:8623   */\n      dup3\n        /* \"#utility.yul\":8616:8628   */\n      add\n        /* \"#utility.yul\":8609:8628   */\n      swap1\n      pop\n        /* \"#utility.yul\":8268:8634   */\n      swap2\n      swap1\n      pop\n      jump\t// out\n        /* \"#utility.yul\":8640:9059   */\n    tag_61:\n        /* \"#utility.yul\":8806:8810   */\n      0x00\n        /* \"#utility.yul\":8844:8846   */\n      0x20\n        /* \"#utility.yul\":8833:8842   */\n      dup3\n        /* \"#utility.yul\":8829:8847   */\n      add\n        /* \"#utility.yul\":8821:8847   */\n      swap1\n      pop\n        /* \"#utility.yul\":8893:8902   */\n      dup2\n        /* \"#utility.yul\":8887:8891   */\n      dup2\n        /* \"#utility.yul\":8883:8903   */\n      sub\n        /* \"#utility.yul\":8879:8880   */\n      0x00\n        /* \"#utility.yul\":8868:8877   */\n      dup4\n        /* \"#utility.yul\":8864:8881   */\n      add\n        /* \"#utility.yul\":8857:8904   */\n      mstore\n        /* \"#utility.yul\":8921:9052   */\n      tag_255\n        /* \"#utility.yul\":9047:9051   */\n      dup2\n        /* \"#utility.yul\":8921:9052   */\n      tag_157\n      jump\t// in\n    tag_255:\n        /* \"#utility.yul\":8913:9052   */\n      swap1\n      pop\n        /* \"#utility.yul\":8640:9059   */\n      swap2\n      swap1\n      pop\n      jump\t// out\n        /* \"#utility.yul\":9065:9235   */\n    tag_158:\n        /* \"#utility.yul\":9205:9227   */\n      0x446561646c696e65206e6f742072656163686564000000000000000000000000\n        /* \"#utility.yul\":9201:9202   */\n      0x00\n        /* \"#utility.yul\":9193:9199   */\n      dup3\n        /* \"#utility.yul\":9189:9203   */\n      add\n        /* \"#utility.yul\":9182:9228   */\n      mstore\n        /* \"#utility.yul\":9065:9235   */\n      pop\n      jump\t// out\n        /* \"#utility.yul\":9241:9607   */\n    tag_159:\n        /* \"#utility.yul\":9383:9386   */\n      0x00\n        /* \"#utility.yul\":9404:9471   */\n      tag_258\n        /* \"#utility.yul\":9468:9470   */\n      0x14\n        /* \"#utility.yul\":9463:9466   */\n      dup4\n        /* \"#utility.yul\":9404:9471   */\n      tag_151\n      jump\t// in\n    tag_258:\n        /* \"#utility.yul\":9397:9471   */\n      swap2\n      pop\n        /* \"#utility.yul\":9480:9573   */\n      tag_259\n        /* \"#utility.yul\":9569:9572   */\n      dup3\n        /* \"#utility.yul\":9480:9573   */\n      tag_158\n      jump\t// in\n    tag_259:\n        /* \"#utility.yul\":9598:9600   */\n      0x20\n        /* \"#utility.yul\":9593:9596   */\n      dup3\n        /* \"#utility.yul\":9589:9601   */\n      add\n        /* \"#utility.yul\":9582:9601   */\n      swap1\n      pop\n        /* \"#utility.yul\":9241:9607   */\n      swap2\n      swap1\n      pop\n      jump\t// out\n        /* \"#utility.yul\":9613:10032   */\n    tag_64:\n        /* \"#utility.yul\":9779:9783   */\n      0x00\n        /* \"#utility.yul\":9817:9819   */\n      0x20\n        /* \"#utility.yul\":9806:9815   */\n      dup3\n        /* \"#utility.yul\":9802:9820   */\n      add\n        /* \"#utility.yul\":9794:9820   */\n      swap1\n      pop\n        /* \"#utility.yul\":9866:9875   */\n      dup2\n        /* \"#utility.yul\":9860:9864   */\n      dup2\n        /* \"#utility.yul\":9856:9876   */\n      sub\n        /* \"#utility.yul\":9852:9853   */\n      0x00\n        /* \"#utility.yul\":9841:9850   */\n      dup4\n        /* \"#utility.yul\":9837:9854   */\n      add\n        /* \"#utility.yul\":9830:9877   */\n      mstore\n        /* \"#utility.yul\":9894:10025   */\n      tag_261\n        /* \"#utility.yul\":10020:10024   */\n      dup2\n        /* \"#utility.yul\":9894:10025   */\n      tag_159\n      jump\t// in\n    tag_261:\n        /* \"#utility.yul\":9886:10025   */\n      swap1\n      pop\n        /* \"#utility.yul\":9613:10032   */\n      swap2\n      swap1\n      pop\n      jump\t// out\n        /* \"#utility.yul\":10038:10185   */\n    tag_160:\n        /* \"#utility.yul\":10139:10150   */\n      0x00\n        /* \"#utility.yul\":10176:10179   */\n      dup2\n        /* \"#utility.yul\":10161:10179   */\n      swap1\n      pop\n        /* \"#utility.yul\":10038:10185   */\n      swap3\n      swap2\n      pop\n      pop\n      jump\t// out\n        /* \"#utility.yul\":10191:10305   */\n    tag_161:\n      pop\n      jump\t// out\n        /* \"#utility.yul\":10311:10709   */\n    tag_162:\n        /* \"#utility.yul\":10470:10473   */\n      0x00\n        /* \"#utility.yul\":10491:10574   */\n      tag_265\n        /* \"#utility.yul\":10572:10573   */\n      0x00\n        /* \"#utility.yul\":10567:10570   */\n      dup4\n        /* \"#utility.yul\":10491:10574   */\n      tag_160\n      jump\t// in\n    tag_265:\n        /* \"#utility.yul\":10484:10574   */\n      swap2\n      pop\n        /* \"#utility.yul\":10583:10676   */\n      tag_266\n        /* \"#utility.yul\":10672:10675   */\n      dup3\n        /* \"#utility.yul\":10583:10676   */\n      tag_161\n      jump\t// in\n    tag_266:\n        /* \"#utility.yul\":10701:10702   */\n      0x00\n        /* \"#utility.yul\":10696:10699   */\n      dup3\n        /* \"#utility.yul\":10692:10703   */\n      add\n        /* \"#utility.yul\":10685:10703   */\n      swap1\n      pop\n        /* \"#utility.yul\":10311:10709   */\n      swap2\n      swap1\n      pop\n      jump\t// out\n        /* \"#utility.yul\":10715:11094   */\n    tag_66:\n        /* \"#utility.yul\":10899:10902   */\n      0x00\n        /* \"#utility.yul\":10921:11068   */\n      tag_268\n        /* \"#utility.yul\":11064:11067   */\n      dup3\n        /* \"#utility.yul\":10921:11068   */\n      tag_162\n      jump\t// in\n    tag_268:\n        /* \"#utility.yul\":10914:11068   */\n      swap2\n      pop\n        /* \"#utility.yul\":11085:11088   */\n      dup2\n        /* \"#utility.yul\":11078:11088   */\n      swap1\n      pop\n        /* \"#utility.yul\":10715:11094   */\n      swap2\n      swap1\n      pop\n      jump\t// out\n        /* \"#utility.yul\":11100:11265   */\n    tag_163:\n        /* \"#utility.yul\":11240:11257   */\n      0x5472616e73666572206661696c65640000000000000000000000000000000000\n        /* \"#utility.yul\":11236:11237   */\n      0x00\n        /* \"#utility.yul\":11228:11234   */\n      dup3\n        /* \"#utility.yul\":11224:11238   */\n      add\n        /* \"#utility.yul\":11217:11258   */\n      mstore\n        /* \"#utility.yul\":11100:11265   */\n      pop\n      jump\t// out\n        /* \"#utility.yul\":11271:11637   */\n    tag_164:\n        /* \"#utility.yul\":11413:11416   */\n      0x00\n        /* \"#utility.yul\":11434:11501   */\n      tag_271\n        /* \"#utility.yul\":11498:11500   */\n      0x0f\n        /* \"#utility.yul\":11493:11496   */\n      dup4\n        /* \"#utility.yul\":11434:11501   */\n      tag_151\n      jump\t// in\n    tag_271:\n        /* \"#utility.yul\":11427:11501   */\n      swap2\n      pop\n        /* \"#utility.yul\":11510:11603   */\n      tag_272\n        /* \"#utility.yul\":11599:11602   */\n      dup3\n        /* \"#utility.yul\":11510:11603   */\n      tag_163\n      jump\t// in\n    tag_272:\n        /* \"#utility.yul\":11628:11630   */\n      0x20\n        /* \"#utility.yul\":11623:11626   */\n      dup3\n        /* \"#utility.yul\":11619:11631   */\n      add\n        /* \"#utility.yul\":11612:11631   */\n      swap1\n      pop\n        /* \"#utility.yul\":11271:11637   */\n      swap2\n      swap1\n      pop\n      jump\t// out\n        /* \"#utility.yul\":11643:12062   */\n    tag_72:\n        /* \"#utility.yul\":11809:11813   */\n      0x00\n        /* \"#utility.yul\":11847:11849   */\n      0x20\n        /* \"#utility.yul\":11836:11845   */\n      dup3\n        /* \"#utility.yul\":11832:11850   */\n      add\n        /* \"#utility.yul\":11824:11850   */\n      swap1\n      pop\n        /* \"#utility.yul\":11896:11905   */\n      dup2\n        /* \"#utility.yul\":11890:11894   */\n      dup2\n        /* \"#utility.yul\":11886:11906   */\n      sub\n        /* \"#utility.yul\":11882:11883   */\n      0x00\n        /* \"#utility.yul\":11871:11880   */\n      dup4\n        /* \"#utility.yul\":11867:11884   */\n      add\n        /* \"#utility.yul\":11860:11907   */\n      mstore\n        /* \"#utility.yul\":11924:12055   */\n      tag_274\n        /* \"#utility.yul\":12050:12054   */\n      dup2\n        /* \"#utility.yul\":11924:12055   */\n      tag_164\n      jump\t// in\n    tag_274:\n        /* \"#utility.yul\":11916:12055   */\n      swap1\n      pop\n        /* \"#utility.yul\":11643:12062   */\n      swap2\n      swap1\n      pop\n      jump\t// out\n        /* \"#utility.yul\":12068:12290   */\n    tag_74:\n        /* \"#utility.yul\":12161:12165   */\n      0x00\n        /* \"#utility.yul\":12199:12201   */\n      0x20\n        /* \"#utility.yul\":12188:12197   */\n      dup3\n        /* \"#utility.yul\":12184:12202   */\n      add\n        /* \"#utility.yul\":12176:12202   */\n      swap1\n      pop\n        /* \"#utility.yul\":12212:12283   */\n      tag_276\n        /* \"#utility.yul\":12280:12281   */\n      0x00\n        /* \"#utility.yul\":12269:12278   */\n      dup4\n        /* \"#utility.yul\":12265:12282   */\n      add\n        /* \"#utility.yul\":12256:12262   */\n      dup5\n        /* \"#utility.yul\":12212:12283   */\n      tag_142\n      jump\t// in\n    tag_276:\n        /* \"#utility.yul\":12068:12290   */\n      swap3\n      swap2\n      pop\n      pop\n      jump\t// out\n        /* \"#utility.yul\":12296:12460   */\n    tag_165:\n        /* \"#utility.yul\":12436:12452   */\n      0x4e6f7420617574686f72697a6564000000000000000000000000000000000000\n        /* \"#utility.yul\":12432:12433   */\n      0x00\n        /* \"#utility.yul\":12424:12430   */\n      dup3\n        /* \"#utility.yul\":12420:12434   */\n      add\n        /* \"#utility.yul\":12413:12453   */\n      mstore\n        /* \"#utility.yul\":12296:12460   */\n      pop\n      jump\t// out\n        /* \"#utility.yul\":12466:12832   */\n    tag_166:\n        /* \"#utility.yul\":12608:12611   */\n      0x00\n        /* \"#utility.yul\":12629:12696   */\n      tag_279\n        /* \"#utility.yul\":12693:12695   */\n      0x0e\n        /* \"#utility.yul\":12688:12691   */\n      dup4\n        /* \"#utility.yul\":12629:12696   */\n      tag_151\n      jump\t// in\n    tag_279:\n        /* \"#utility.yul\":12622:12696   */\n      swap2\n      pop\n        /* \"#utility.yul\":12705:12798   */\n      tag_280\n        /* \"#utility.yul\":12794:12797   */\n      dup3\n        /* \"#utility.yul\":12705:12798   */\n      tag_165\n      jump\t// in\n    tag_280:\n        /* \"#utility.yul\":12823:12825   */\n      0x20\n        /* \"#utility.yul\":12818:12821   */\n      dup3\n        /* \"#utility.yul\":12814:12826   */\n      add\n        /* \"#utility.yul\":12807:12826   */\n      swap1\n      pop\n        /* \"#utility.yul\":12466:12832   */\n      swap2\n      swap1\n      pop\n      jump\t// out\n        /* \"#utility.yul\":12838:13257   */\n    tag_82:\n        /* \"#utility.yul\":13004:13008   */\n      0x00\n        /* \"#utility.yul\":13042:13044   */\n      0x20\n        /* \"#utility.yul\":13031:13040   */\n      dup3\n        /* \"#utility.yul\":13027:13045   */\n      add\n        /* \"#utility.yul\":13019:13045   */\n      swap1\n      pop\n        /* \"#utility.yul\":13091:13100   */\n      dup2\n        /* \"#utility.yul\":13085:13089   */\n      dup2\n        /* \"#utility.yul\":13081:13101   */\n      sub\n        /* \"#utility.yul\":13077:13078   */\n      0x00\n        /* \"#utility.yul\":13066:13075   */\n      dup4\n        /* \"#utility.yul\":13062:13079   */\n      add\n        /* \"#utility.yul\":13055:13102   */\n      mstore\n        /* \"#utility.yul\":13119:13250   */\n      tag_282\n        /* \"#utility.yul\":13245:13249   */\n      dup2\n        /* \"#utility.yul\":13119:13250   */\n      tag_166\n      jump\t// in\n    tag_282:\n        /* \"#utility.yul\":13111:13250   */\n      swap1\n      pop\n        /* \"#utility.yul\":12838:13257   */\n      swap2\n      swap1\n      pop\n      jump\t// out\n        /* \"#utility.yul\":13263:13442   */\n    tag_167:\n        /* \"#utility.yul\":13403:13434   */\n      0x416d6f756e74206d7573742062652067726561746572207468616e2030000000\n        /* \"#utility.yul\":13399:13400   */\n      0x00\n        /* \"#utility.yul\":13391:13397   */\n      dup3\n        /* \"#utility.yul\":13387:13401   */\n      add\n        /* \"#utility.yul\":13380:13435   */\n      mstore\n        /* \"#utility.yul\":13263:13442   */\n      pop\n      jump\t// out\n        /* \"#utility.yul\":13448:13814   */\n    tag_168:\n        /* \"#utility.yul\":13590:13593   */\n      0x00\n        /* \"#utility.yul\":13611:13678   */\n      tag_285\n        /* \"#utility.yul\":13675:13677   */\n      0x1d\n        /* \"#utility.yul\":13670:13673   */\n      dup4\n        /* \"#utility.yul\":13611:13678   */\n      tag_151\n      jump\t// in\n    tag_285:\n        /* \"#utility.yul\":13604:13678   */\n      swap2\n      pop\n        /* \"#utility.yul\":13687:13780   */\n      tag_286\n        /* \"#utility.yul\":13776:13779   */\n      dup3\n        /* \"#utility.yul\":13687:13780   */\n      tag_167\n      jump\t// in\n    tag_286:\n        /* \"#utility.yul\":13805:13807   */\n      0x20\n        /* \"#utility.yul\":13800:13803   */\n      dup3\n        /* \"#utility.yul\":13796:13808   */\n      add\n        /* \"#utility.yul\":13789:13808   */\n      swap1\n      pop\n        /* \"#utility.yul\":13448:13814   */\n      swap2\n      swap1\n      pop\n      jump\t// out\n        /* \"#utility.yul\":13820:14239   */\n    tag_119:\n        /* \"#utility.yul\":13986:13990   */\n      0x00\n        /* \"#utility.yul\":14024:14026   */\n      0x20\n        /* \"#utility.yul\":14013:14022   */\n      dup3\n        /* \"#utility.yul\":14009:14027   */\n      add\n        /* \"#utility.yul\":14001:14027   */\n      swap1\n      pop\n        /* \"#utility.yul\":14073:14082   */\n      dup2\n        /* \"#utility.yul\":14067:14071   */\n      dup2\n        /* \"#utility.yul\":14063:14083   */\n      sub\n        /* \"#utility.yul\":14059:14060   */\n      0x00\n        /* \"#utility.yul\":14048:14057   */\n      dup4\n        /* \"#utility.yul\":14044:14061   */\n      add\n        /* \"#utility.yul\":14037:14084   */\n      mstore\n        /* \"#utility.yul\":14101:14232   */\n      tag_288\n        /* \"#utility.yul\":14227:14231   */\n      dup2\n        /* \"#utility.yul\":14101:14232   */\n      tag_168\n      jump\t// in\n    tag_288:\n        /* \"#utility.yul\":14093:14232   */\n      swap1\n      pop\n        /* \"#utility.yul\":13820:14239   */\n      swap2\n      swap1\n      pop\n      jump\t// out\n        /* \"#utility.yul\":14245:14417   */\n    tag_169:\n        /* \"#utility.yul\":14385:14409   */\n      0x496e76616c69642073656c6c6572206164647265737300000000000000000000\n        /* \"#utility.yul\":14381:14382   */\n      0x00\n        /* \"#utility.yul\":14373:14379   */\n      dup3\n        /* \"#utility.yul\":14369:14383   */\n      add\n        /* \"#utility.yul\":14362:14410   */\n      mstore\n        /* \"#utility.yul\":14245:14417   */\n      pop\n      jump\t// out\n        /* \"#utility.yul\":14423:14789   */\n    tag_170:\n        /* \"#utility.yul\":14565:14568   */\n      0x00\n        /* \"#utility.yul\":14586:14653   */\n      tag_291\n        /* \"#utility.yul\":14650:14652   */\n      0x16\n        /* \"#utility.yul\":14645:14648   */\n      dup4\n        /* \"#utility.yul\":14586:14653   */\n      tag_151\n      jump\t// in\n    tag_291:\n        /* \"#utility.yul\":14579:14653   */\n      swap2\n      pop\n        /* \"#utility.yul\":14662:14755   */\n      tag_292\n        /* \"#utility.yul\":14751:14754   */\n      dup3\n        /* \"#utility.yul\":14662:14755   */\n      tag_169\n      jump\t// in\n    tag_292:\n        /* \"#utility.yul\":14780:14782   */\n      0x20\n        /* \"#utility.yul\":14775:14778   */\n      dup3\n        /* \"#utility.yul\":14771:14783   */\n      add\n        /* \"#utility.yul\":14764:14783   */\n      swap1\n      pop\n        /* \"#utility.yul\":14423:14789   */\n      swap2\n      swap1\n      pop\n      jump\t// out\n        /* \"#utility.yul\":14795:15214   */\n    tag_122:\n        /* \"#utility.yul\":14961:14965   */\n      0x00\n        /* \"#utility.yul\":14999:15001   */\n      0x20\n        /* \"#utility.yul\":14988:14997   */\n      dup3\n        /* \"#utility.yul\":14984:15002   */\n      add\n        /* \"#utility.yul\":14976:15002   */\n      swap1\n      pop\n        /* \"#utility.yul\":15048:15057   */\n      dup2\n        /* \"#utility.yul\":15042:15046   */\n      dup2\n        /* \"#utility.yul\":15038:15058   */\n      sub\n        /* \"#utility.yul\":15034:15035   */\n      0x00\n        /* \"#utility.yul\":15023:15032   */\n      dup4\n        /* \"#utility.yul\":15019:15036   */\n      add\n        /* \"#utility.yul\":15012:15059   */\n      mstore\n        /* \"#utility.yul\":15076:15207   */\n      tag_294\n        /* \"#utility.yul\":15202:15206   */\n      dup2\n        /* \"#utility.yul\":15076:15207   */\n      tag_170\n      jump\t// in\n    tag_294:\n        /* \"#utility.yul\":15068:15207   */\n      swap1\n      pop\n        /* \"#utility.yul\":14795:15214   */\n      swap2\n      swap1\n      pop\n      jump\t// out\n        /* \"#utility.yul\":15220:15391   */\n    tag_171:\n        /* \"#utility.yul\":15360:15383   */\n      0x457363726f7720616c7265616479206578697374730000000000000000000000\n        /* \"#utility.yul\":15356:15357   */\n      0x00\n        /* \"#utility.yul\":15348:15354   */\n      dup3\n        /* \"#utility.yul\":15344:15358   */\n      add\n        /* \"#utility.yul\":15337:15384   */\n      mstore\n        /* \"#utility.yul\":15220:15391   */\n      pop\n      jump\t// out\n        /* \"#utility.yul\":15397:15763   */\n    tag_172:\n        /* \"#utility.yul\":15539:15542   */\n      0x00\n        /* \"#utility.yul\":15560:15627   */\n      tag_297\n        /* \"#utility.yul\":15624:15626   */\n      0x15\n        /* \"#utility.yul\":15619:15622   */\n      dup4\n        /* \"#utility.yul\":15560:15627   */\n      tag_151\n      jump\t// in\n    tag_297:\n        /* \"#utility.yul\":15553:15627   */\n      swap2\n      pop\n        /* \"#utility.yul\":15636:15729   */\n      tag_298\n        /* \"#utility.yul\":15725:15728   */\n      dup3\n        /* \"#utility.yul\":15636:15729   */\n      tag_171\n      jump\t// in\n    tag_298:\n        /* \"#utility.yul\":15754:15756   */\n      0x20\n        /* \"#utility.yul\":15749:15752   */\n      dup3\n        /* \"#utility.yul\":15745:15757   */\n      add\n        /* \"#utility.yul\":15738:15757   */\n      swap1\n      pop\n        /* \"#utility.yul\":15397:15763   */\n      swap2\n      swap1\n      pop\n      jump\t// out\n        /* \"#utility.yul\":15769:16188   */\n    tag_125:\n        /* \"#utility.yul\":15935:15939   */\n      0x00\n        /* \"#utility.yul\":15973:15975   */\n      0x20\n        /* \"#utility.yul\":15962:15971   */\n      dup3\n        /* \"#utility.yul\":15958:15976   */\n      add\n        /* \"#utility.yul\":15950:15976   */\n      swap1\n      pop\n        /* \"#utility.yul\":16022:16031   */\n      dup2\n        /* \"#utility.yul\":16016:16020   */\n      dup2\n        /* \"#utility.yul\":16012:16032   */\n      sub\n        /* \"#utility.yul\":16008:16009   */\n      0x00\n        /* \"#utility.yul\":15997:16006   */\n      dup4\n        /* \"#utility.yul\":15993:16010   */\n      add\n        /* \"#utility.yul\":15986:16033   */\n      mstore\n        /* \"#utility.yul\":16050:16181   */\n      tag_300\n        /* \"#utility.yul\":16176:16180   */\n      dup2\n        /* \"#utility.yul\":16050:16181   */\n      tag_172\n      jump\t// in\n    tag_300:\n        /* \"#utility.yul\":16042:16181   */\n      swap1\n      pop\n        /* \"#utility.yul\":15769:16188   */\n      swap2\n      swap1\n      pop\n      jump\t// out\n        /* \"#utility.yul\":16194:16374   */\n    tag_173:\n        /* \"#utility.yul\":16242:16319   */\n      0x4e487b7100000000000000000000000000000000000000000000000000000000\n        /* \"#utility.yul\":16239:16240   */\n      0x00\n        /* \"#utility.yul\":16232:16320   */\n      mstore\n        /* \"#utility.yul\":16339:16343   */\n      0x11\n        /* \"#utility.yul\":16336:16337   */\n      0x04\n        /* \"#utility.yul\":16329:16344   */\n      mstore\n        /* \"#utility.yul\":16363:16367   */\n      0x24\n        /* \"#utility.yul\":16360:16361   */\n      0x00\n        /* \"#utility.yul\":16353:16368   */\n      revert\n        /* \"#utility.yul\":16380:16571   */\n    tag_127:\n        /* \"#utility.yul\":16420:16423   */\n      0x00\n        /* \"#utility.yul\":16439:16459   */\n      tag_303\n        /* \"#utility.yul\":16457:16458   */\n      dup3\n        /* \"#utility.yul\":16439:16459   */\n      tag_141\n      jump\t// in\n    tag_303:\n        /* \"#utility.yul\":16434:16459   */\n      swap2\n      pop\n        /* \"#utility.yul\":16473:16493   */\n      tag_304\n        /* \"#utility.yul\":16491:16492   */\n      dup4\n        /* \"#utility.yul\":16473:16493   */\n      tag_141\n      jump\t// in\n    tag_304:\n        /* \"#utility.yul\":16468:16493   */\n      swap3\n      pop\n        /* \"#utility.yul\":16516:16517   */\n      dup3\n        /* \"#utility.yul\":16513:16514   */\n      dup3\n        /* \"#utility.yul\":16509:16518   */\n      add\n        /* \"#utility.yul\":16502:16518   */\n      swap1\n      pop\n        /* \"#utility.yul\":16537:16540   */\n      dup1\n        /* \"#utility.yul\":16534:16535   */\n      dup3\n        /* \"#utility.yul\":16531:16541   */\n      gt\n        /* \"#utility.yul\":16528:16564   */\n      iszero\n      tag_305\n      jumpi\n        /* \"#utility.yul\":16544:16562   */\n      tag_306\n      tag_173\n      jump\t// in\n    tag_306:\n        /* \"#utility.yul\":16528:16564   */\n    tag_305:\n        /* \"#utility.yul\":16380:16571   */\n      swap3\n      swap2\n      pop\n      pop\n      jump\t// out\n\n    auxdata: 0xa26469706673582212202076926f255b3cebad7fbc261bd014a980625a4def9d32ccd40010432ce5f17364736f6c634300081e0033\n}\n",
				"bytecode": {
					"linkReferences": {},
					"object": "6080604052348015600e575f5ffd5b503360015f6101000a81548173ffffffffffffffffffffffffffffffffffffffff021916908373ffffffffffffffffffffffffffffffffffffffff1602179055506119008061005c5f395ff3fe60806040526004361061007a575f3560e01c80637249fbb61161004d5780637249fbb61461014c5780638da5cb5b14610174578063cec4c8551461019e578063f023b811146101ba5761007a565b80632d83549c1461007e57806340975025146100c057806349b0b54f146100e857806367d42a8b14610124575b5f5ffd5b348015610089575f5ffd5b506100a4600480360381019061009f91906111e3565b6101f6565b6040516100b7979695949392919061127f565b60405180910390f35b3480156100cb575f5ffd5b506100e660048036038101906100e191906111e3565b61028a565b005b3480156100f3575f5ffd5b5061010e600480360381019061010991906111e3565b61058d565b60405161011b91906112ec565b60405180910390f35b34801561012f575f5ffd5b5061014a600480360381019061014591906111e3565b610640565b005b348015610157575f5ffd5b50610172600480360381019061016d91906111e3565b61098c565b005b34801561017f575f5ffd5b50610188610cd7565b6040516101959190611305565b60405180910390f35b6101b860048036038101906101b39190611348565b610cfc565b005b3480156101c5575f5ffd5b506101e060048036038101906101db91906111e3565b611020565b6040516101ed919061143f565b60405180910390f35b5f602052805f5260405f205f91509050805f015f9054906101000a900473ffffffffffffffffffffffffffffffffffffffff1690806001015f9054906101000a900473ffffffffffffffffffffffffffffffffffffffff1690806002015490806003015f9054906101000a900460ff16908060030160019054906101000a900460ff16908060040154908060050154905087565b805f73ffffffffffffffffffffffffffffffffffffffff165f5f8381526020019081526020015f205f015f9054906101000a900473ffffffffffffffffffffffffffffffffffffffff1673ffffffffffffffffffffffffffffffffffffffff160361032a576040517f08c379a0000000000000000000000000000000000000000000000000000000008152600401610321906114b2565b60405180910390fd5b5f5f5f8481526020019081526020015f209050806003015f9054906101000a900460ff161561038e576040517f08c379a00000000000000000000000000000000000000000000000000000000081526004016103859061151a565b60405180910390fd5b8060030160019054906101000a900460ff16156103e0576040517f08c379a00000000000000000000000000000000000000000000000000000000081526004016103d790611582565b60405180910390fd5b8060050154421015610427576040517f08c379a000000000000000000000000000000000000000000000000000000000815260040161041e906115ea565b60405180910390fd5b60018160030160016101000a81548160ff0219169083151502179055505f815f015f9054906101000a900473ffffffffffffffffffffffffffffffffffffffff1673ffffffffffffffffffffffffffffffffffffffff16826002015460405161048f90611635565b5f6040518083038185875af1925050503d805f81146104c9576040519150601f19603f3d011682016040523d82523d5f602084013e6104ce565b606091505b5050905080610512576040517f08c379a000000000000000000000000000000000000000000000000000000000815260040161050990611693565b60405180910390fd5b815f015f9054906101000a900473ffffffffffffffffffffffffffffffffffffffff1673ffffffffffffffffffffffffffffffffffffffff16847ffc31a7ddbe933aa6e67f3c98c183fbc87addd2b602fcfb10238d2f85cf026617846002015460405161057f91906116b1565b60405180910390a350505050565b5f5f5f5f8481526020019081526020015f209050806003015f9054906101000a900460ff161580156105ce57508060030160019054906101000a900460ff16155b801561062857505f73ffffffffffffffffffffffffffffffffffffffff16815f015f9054906101000a900473ffffffffffffffffffffffffffffffffffffffff1673ffffffffffffffffffffffffffffffffffffffff1614155b8015610638575080600501544210155b915050919050565b60015f9054906101000a900473ffffffffffffffffffffffffffffffffffffffff1673ffffffffffffffffffffffffffffffffffffffff163373ffffffffffffffffffffffffffffffffffffffff16146106cf576040517f08c379a00000000000000000000000000000000000000000000000000000000081526004016106c690611714565b60405180910390fd5b805f73ffffffffffffffffffffffffffffffffffffffff165f5f8381526020019081526020015f205f015f9054906101000a900473ffffffffffffffffffffffffffffffffffffffff1673ffffffffffffffffffffffffffffffffffffffff160361076f576040517f08c379a0000000000000000000000000000000000000000000000000000000008152600401610766906114b2565b60405180910390fd5b5f5f5f8481526020019081526020015f209050806003015f9054906101000a900460ff16156107d3576040517f08c379a00000000000000000000000000000000000000000000000000000000081526004016107ca9061151a565b60405180910390fd5b8060030160019054906101000a900460ff1615610825576040517f08c379a000000000000000000000000000000000000000000000000000000000815260040161081c90611582565b60405180910390fd5b6001816003015f6101000a81548160ff0219169083151502179055505f816001015f9054906101000a900473ffffffffffffffffffffffffffffffffffffffff1673ffffffffffffffffffffffffffffffffffffffff16826002015460405161088d90611635565b5f6040518083038185875af1925050503d805f81146108c7576040519150601f19603f3d011682016040523d82523d5f602084013e6108cc565b606091505b5050905080610910576040517f08c379a000000000000000000000000000000000000000000000000000000000815260040161090790611693565b60405180910390fd5b816001015f9054906101000a900473ffffffffffffffffffffffffffffffffffffffff1673ffffffffffffffffffffffffffffffffffffffff16847f3a9c1cd29cd3be251a72ce3c367c27dc1cb697ac4589965b76a83f9a25ca0710846002015460405161097e91906116b1565b60405180910390a350505050565b60015f9054906101000a900473ffffffffffffffffffffffffffffffffffffffff1673ffffffffffffffffffffffffffffffffffffffff163373ffffffffffffffffffffffffffffffffffffffff1614610a1b576040517f08c379a0000000000000000000000000000000000000000000000000000000008152600401610a1290611714565b60405180910390fd5b805f73ffffffffffffffffffffffffffffffffffffffff165f5f8381526020019081526020015f205f015f9054906101000a900473ffffffffffffffffffffffffffffffffffffffff1673ffffffffffffffffffffffffffffffffffffffff1603610abb576040517f08c379a0000000000000000000000000000000000000000000000000000000008152600401610ab2906114b2565b60405180910390fd5b5f5f5f8481526020019081526020015f209050806003015f9054906101000a900460ff1615610b1f576040517f08c379a0000000000000000000000000000000000000000000000000000000008152600401610b169061151a565b60405180910390fd5b8060030160019054906101000a900460ff1615610b71576040517f08c379a0000000000000000000000000000000000000000000000000000000008152600401610b6890611582565b60405180910390fd5b60018160030160016101000a81548160ff0219169083151502179055505f815f015f9054906101000a900473ffffffffffffffffffffffffffffffffffffffff1673ffffffffffffffffffffffffffffffffffffffff168260020154604051610bd990611635565b5f6040518083038185875af1925050503d805f8114610c13576040519150601f19603f3d011682016040523d82523d5f602084013e610c18565b606091505b5050905080610c5c576040517f08c379a0000000000000000000000000000000000000000000000000000000008152600401610c5390611693565b60405180910390fd5b815f015f9054906101000a900473ffffffffffffffffffffffffffffffffffffffff1673ffffffffffffffffffffffffffffffffffffffff16847ffc31a7ddbe933aa6e67f3c98c183fbc87addd2b602fcfb10238d2f85cf0266178460020154604051610cc991906116b1565b60405180910390a350505050565b60015f9054906101000a900473ffffffffffffffffffffffffffffffffffffffff1681565b5f3411610d3e576040517f08c379a0000000000000000000000000000000000000000000000000000000008152600401610d359061177c565b60405180910390fd5b5f73ffffffffffffffffffffffffffffffffffffffff168173ffffffffffffffffffffffffffffffffffffffff1603610dac576040517f08c379a0000000000000000000000000000000000000000000000000000000008152600401610da3906117e4565b60405180910390fd5b5f73ffffffffffffffffffffffffffffffffffffffff165f5f8481526020019081526020015f205f015f9054906101000a900473ffffffffffffffffffffffffffffffffffffffff1673ffffffffffffffffffffffffffffffffffffffff1614610e4b576040517f08c379a0000000000000000000000000000000000000000000000000000000008152600401610e429061184c565b60405180910390fd5b6040518060e001604052803373ffffffffffffffffffffffffffffffffffffffff1681526020018273ffffffffffffffffffffffffffffffffffffffff1681526020013481526020015f151581526020015f1515815260200142815260200162278d0042610eb99190611897565b8152505f5f8481526020019081526020015f205f820151815f015f6101000a81548173ffffffffffffffffffffffffffffffffffffffff021916908373ffffffffffffffffffffffffffffffffffffffff1602179055506020820151816001015f6101000a81548173ffffffffffffffffffffffffffffffffffffffff021916908373ffffffffffffffffffffffffffffffffffffffff160217905550604082015181600201556060820151816003015f6101000a81548160ff02191690831515021790555060808201518160030160016101000a81548160ff02191690831515021790555060a0820151816004015560c082015181600501559050508073ffffffffffffffffffffffffffffffffffffffff163373ffffffffffffffffffffffffffffffffffffffff16837f0dd968c277d9dc6b36b6ec2b638324c3d937882c64ca109440bc050ebf26cb073460405161101491906116b1565b60405180910390a45050565b611028611146565b5f5f8381526020019081526020015f206040518060e00160405290815f82015f9054906101000a900473ffffffffffffffffffffffffffffffffffffffff1673ffffffffffffffffffffffffffffffffffffffff1673ffffffffffffffffffffffffffffffffffffffff168152602001600182015f9054906101000a900473ffffffffffffffffffffffffffffffffffffffff1673ffffffffffffffffffffffffffffffffffffffff1673ffffffffffffffffffffffffffffffffffffffff16815260200160028201548152602001600382015f9054906101000a900460ff161515151581526020016003820160019054906101000a900460ff16151515158152602001600482015481526020016005820154815250509050919050565b6040518060e001604052805f73ffffffffffffffffffffffffffffffffffffffff1681526020015f73ffffffffffffffffffffffffffffffffffffffff1681526020015f81526020015f151581526020015f151581526020015f81526020015f81525090565b5f5ffd5b5f819050919050565b6111c2816111b0565b81146111cc575f5ffd5b50565b5f813590506111dd816111b9565b92915050565b5f602082840312156111f8576111f76111ac565b5b5f611205848285016111cf565b91505092915050565b5f73ffffffffffffffffffffffffffffffffffffffff82169050919050565b5f6112378261120e565b9050919050565b6112478161122d565b82525050565b5f819050919050565b61125f8161124d565b82525050565b5f8115159050919050565b61127981611265565b82525050565b5f60e0820190506112925f83018a61123e565b61129f602083018961123e565b6112ac6040830188611256565b6112b96060830187611270565b6112c66080830186611270565b6112d360a0830185611256565b6112e060c0830184611256565b98975050505050505050565b5f6020820190506112ff5f830184611270565b92915050565b5f6020820190506113185f83018461123e565b92915050565b6113278161122d565b8114611331575f5ffd5b50565b5f813590506113428161131e565b92915050565b5f5f6040838503121561135e5761135d6111ac565b5b5f61136b858286016111cf565b925050602061137c85828601611334565b9150509250929050565b61138f8161122d565b82525050565b61139e8161124d565b82525050565b6113ad81611265565b82525050565b60e082015f8201516113c75f850182611386565b5060208201516113da6020850182611386565b5060408201516113ed6040850182611395565b50606082015161140060608501826113a4565b50608082015161141360808501826113a4565b5060a082015161142660a0850182611395565b5060c082015161143960c0850182611395565b50505050565b5f60e0820190506114525f8301846113b3565b92915050565b5f82825260208201905092915050565b7f457363726f7720646f6573206e6f7420657869737400000000000000000000005f82015250565b5f61149c601583611458565b91506114a782611468565b602082019050919050565b5f6020820190508181035f8301526114c981611490565b9050919050565b7f416c72656164792072656c6561736564000000000000000000000000000000005f82015250565b5f611504601083611458565b915061150f826114d0565b602082019050919050565b5f6020820190508181035f830152611531816114f8565b9050919050565b7f416c726561647920726566756e646564000000000000000000000000000000005f82015250565b5f61156c601083611458565b915061157782611538565b602082019050919050565b5f6020820190508181035f83015261159981611560565b9050919050565b7f446561646c696e65206e6f7420726561636865640000000000000000000000005f82015250565b5f6115d4601483611458565b91506115df826115a0565b602082019050919050565b5f6020820190508181035f830152611601816115c8565b9050919050565b5f81905092915050565b50565b5f6116205f83611608565b915061162b82611612565b5f82019050919050565b5f61163f82611615565b9150819050919050565b7f5472616e73666572206661696c656400000000000000000000000000000000005f82015250565b5f61167d600f83611458565b915061168882611649565b602082019050919050565b5f6020820190508181035f8301526116aa81611671565b9050919050565b5f6020820190506116c45f830184611256565b92915050565b7f4e6f7420617574686f72697a65640000000000000000000000000000000000005f82015250565b5f6116fe600e83611458565b9150611709826116ca565b602082019050919050565b5f6020820190508181035f83015261172b816116f2565b9050919050565b7f416d6f756e74206d7573742062652067726561746572207468616e20300000005f82015250565b5f611766601d83611458565b915061177182611732565b602082019050919050565b5f6020820190508181035f8301526117938161175a565b9050919050565b7f496e76616c69642073656c6c65722061646472657373000000000000000000005f82015250565b5f6117ce601683611458565b91506117d98261179a565b602082019050919050565b5f6020820190508181035f8301526117fb816117c2565b9050919050565b7f457363726f7720616c72656164792065786973747300000000000000000000005f82015250565b5f611836601583611458565b915061184182611802565b602082019050919050565b5f6020820190508181035f8301526118638161182a565b9050919050565b7f4e487b71000000000000000000000000000000000000000000000000000000005f52601160045260245ffd5b5f6118a18261124d565b91506118ac8361124d565b92508282019050808211156118c4576118c361186a565b5b9291505056fea26469706673582212202076926f255b3cebad7fbc261bd014a980625a4def9d32ccd40010432ce5f17364736f6c634300081e0033",
					"opcodes": "PUSH1 0x80 PUSH1 0x40 MSTORE CALLVALUE DUP1 ISZERO PUSH1 0xE JUMPI PUSH0 PUSH0 REVERT JUMPDEST POP CALLER PUSH1 0x1 PUSH0 PUSH2 0x100 EXP DUP2 SLOAD DUP2 PUSH20 0xFFFFFFFFFFFFFFFFFFFFFFFFFFFFFFFFFFFFFFFF MUL NOT AND SWAP1 DUP4 PUSH20 0xFFFFFFFFFFFFFFFFFFFFFFFFFFFFFFFFFFFFFFFF AND MUL OR SWAP1 SSTORE POP PUSH2 0x1900 DUP1 PUSH2 0x5C PUSH0 CODECOPY PUSH0 RETURN INVALID PUSH1 0x80 PUSH1 0x40 MSTORE PUSH1 0x4 CALLDATASIZE LT PUSH2 0x7A JUMPI PUSH0 CALLDATALOAD PUSH1 0xE0 SHR DUP1 PUSH4 0x7249FBB6 GT PUSH2 0x4D JUMPI DUP1 PUSH4 0x7249FBB6 EQ PUSH2 0x14C JUMPI DUP1 PUSH4 0x8DA5CB5B EQ PUSH2 0x174 JUMPI DUP1 PUSH4 0xCEC4C855 EQ PUSH2 0x19E JUMPI DUP1 PUSH4 0xF023B811 EQ PUSH2 0x1BA JUMPI PUSH2 0x7A JUMP JUMPDEST DUP1 PUSH4 0x2D83549C EQ PUSH2 0x7E JUMPI DUP1 PUSH4 0x40975025 EQ PUSH2 0xC0 JUMPI DUP1 PUSH4 0x49B0B54F EQ PUSH2 0xE8 JUMPI DUP1 PUSH4 0x67D42A8B EQ PUSH2 0x124 JUMPI JUMPDEST PUSH0 PUSH0 REVERT JUMPDEST CALLVALUE DUP1 ISZERO PUSH2 0x89 JUMPI PUSH0 PUSH0 REVERT JUMPDEST POP PUSH2 0xA4 PUSH1 0x4 DUP1 CALLDATASIZE SUB DUP2 ADD SWAP1 PUSH2 0x9F SWAP2 SWAP1 PUSH2 0x11E3 JUMP JUMPDEST PUSH2 0x1F6 JUMP JUMPDEST PUSH1 0x40 MLOAD PUSH2 0xB7 SWAP8 SWAP7 SWAP6 SWAP5 SWAP4 SWAP3 SWAP2 SWAP1 PUSH2 0x127F JUMP JUMPDEST PUSH1 0x40 MLOAD DUP1 SWAP2 SUB SWAP1 RETURN JUMPDEST CALLVALUE DUP1 ISZERO PUSH2 0xCB JUMPI PUSH0 PUSH0 REVERT JUMPDEST POP PUSH2 0xE6 PUSH1 0x4 DUP1 CALLDATASIZE SUB DUP2 ADD SWAP1 PUSH2 0xE1 SWAP2 SWAP1 PUSH2 0x11E3 JUMP JUMPDEST PUSH2 0x28A JUMP JUMPDEST STOP JUMPDEST CALLVALUE DUP1 ISZERO PUSH2 0xF3 JUMPI PUSH0 PUSH0 REVERT JUMPDEST POP PUSH2 0x10E PUSH1 0x4 DUP1 CALLDATASIZE SUB DUP2 ADD SWAP1 PUSH2 0x109 SWAP2 SWAP1 PUSH2 0x11E3 JUMP JUMPDEST PUSH2 0x58D JUMP JUMPDEST PUSH1 0x40 MLOAD PUSH2 0x11B SWAP2 SWAP1 PUSH2 0x12EC JUMP JUMPDEST PUSH1 0x40 MLOAD DUP1 SWAP2 SUB SWAP1 RETURN JUMPDEST CALLVALUE DUP1 ISZERO PUSH2 0x12F JUMPI PUSH0 PUSH0 REVERT JUMPDEST POP PUSH2 0x14A PUSH1 0x4 DUP1 CALLDATASIZE SUB DUP2 ADD SWAP1 PUSH2 0x145 SWAP2 SWAP1 PUSH2 0x11E3 JUMP JUMPDEST PUSH2 0x640 JUMP JUMPDEST STOP JUMPDEST CALLVALUE DUP1 ISZERO PUSH2 0x157 JUMPI PUSH0 PUSH0 REVERT JUMPDEST POP PUSH2 0x172 PUSH1 0x4 DUP1 CALLDATASIZE SUB DUP2 ADD SWAP1 PUSH2 0x16D SWAP2 SWAP1 PUSH2 0x11E3 JUMP JUMPDEST PUSH2 0x98C JUMP JUMPDEST STOP JUMPDEST CALLVALUE DUP1 ISZERO PUSH2 0x17F JUMPI PUSH0 PUSH0 REVERT JUMPDEST POP PUSH2 0x188 PUSH2 0xCD7 JUMP JUMPDEST PUSH1 0x40 MLOAD PUSH2 0x195 SWAP2 SWAP1 PUSH2 0x1305 JUMP JUMPDEST PUSH1 0x40 MLOAD DUP1 SWAP2 SUB SWAP1 RETURN JUMPDEST PUSH2 0x1B8 PUSH1 0x4 DUP1 CALLDATASIZE SUB DUP2 ADD SWAP1 PUSH2 0x1B3 SWAP2 SWAP1 PUSH2 0x1348 JUMP JUMPDEST PUSH2 0xCFC JUMP JUMPDEST STOP JUMPDEST CALLVALUE DUP1 ISZERO PUSH2 0x1C5 JUMPI PUSH0 PUSH0 REVERT JUMPDEST POP PUSH2 0x1E0 PUSH1 0x4 DUP1 CALLDATASIZE SUB DUP2 ADD SWAP1 PUSH2 0x1DB SWAP2 SWAP1 PUSH2 0x11E3 JUMP JUMPDEST PUSH2 0x1020 JUMP JUMPDEST PUSH1 0x40 MLOAD PUSH2 0x1ED SWAP2 SWAP1 PUSH2 0x143F JUMP JUMPDEST PUSH1 0x40 MLOAD DUP1 SWAP2 SUB SWAP1 RETURN JUMPDEST PUSH0 PUSH1 0x20 MSTORE DUP1 PUSH0 MSTORE PUSH1 0x40 PUSH0 KECCAK256 PUSH0 SWAP2 POP SWAP1 POP DUP1 PUSH0 ADD PUSH0 SWAP1 SLOAD SWAP1 PUSH2 0x100 EXP SWAP1 DIV PUSH20 0xFFFFFFFFFFFFFFFFFFFFFFFFFFFFFFFFFFFFFFFF AND SWAP1 DUP1 PUSH1 0x1 ADD PUSH0 SWAP1 SLOAD SWAP1 PUSH2 0x100 EXP SWAP1 DIV PUSH20 0xFFFFFFFFFFFFFFFFFFFFFFFFFFFFFFFFFFFFFFFF AND SWAP1 DUP1 PUSH1 0x2 ADD SLOAD SWAP1 DUP1 PUSH1 0x3 ADD PUSH0 SWAP1 SLOAD SWAP1 PUSH2 0x100 EXP SWAP1 DIV PUSH1 0xFF AND SWAP1 DUP1 PUSH1 0x3 ADD PUSH1 0x1 SWAP1 SLOAD SWAP1 PUSH2 0x100 EXP SWAP1 DIV PUSH1 0xFF AND SWAP1 DUP1 PUSH1 0x4 ADD SLOAD SWAP1 DUP1 PUSH1 0x5 ADD SLOAD SWAP1 POP DUP8 JUMP JUMPDEST DUP1 PUSH0 PUSH20 0xFFFFFFFFFFFFFFFFFFFFFFFFFFFFFFFFFFFFFFFF AND PUSH0 PUSH0 DUP4 DUP2 MSTORE PUSH1 0x20 ADD SWAP1 DUP2 MSTORE PUSH1 0x20 ADD PUSH0 KECCAK256 PUSH0 ADD PUSH0 SWAP1 SLOAD SWAP1 PUSH2 0x100 EXP SWAP1 DIV PUSH20 0xFFFFFFFFFFFFFFFFFFFFFFFFFFFFFFFFFFFFFFFF AND PUSH20 0xFFFFFFFFFFFFFFFFFFFFFFFFFFFFFFFFFFFFFFFF AND SUB PUSH2 0x32A JUMPI PUSH1 0x40 MLOAD PUSH32 0x8C379A000000000000000000000000000000000000000000000000000000000 DUP2 MSTORE PUSH1 0x4 ADD PUSH2 0x321 SWAP1 PUSH2 0x14B2 JUMP JUMPDEST PUSH1 0x40 MLOAD DUP1 SWAP2 SUB SWAP1 REVERT JUMPDEST PUSH0 PUSH0 PUSH0 DUP5 DUP2 MSTORE PUSH1 0x20 ADD SWAP1 DUP2 MSTORE PUSH1 0x20 ADD PUSH0 KECCAK256 SWAP1 POP DUP1 PUSH1 0x3 ADD PUSH0 SWAP1 SLOAD SWAP1 PUSH2 0x100 EXP SWAP1 DIV PUSH1 0xFF AND ISZERO PUSH2 0x38E JUMPI PUSH1 0x40 MLOAD PUSH32 0x8C379A000000000000000000000000000000000000000000000000000000000 DUP2 MSTORE PUSH1 0x4 ADD PUSH2 0x385 SWAP1 PUSH2 0x151A JUMP JUMPDEST PUSH1 0x40 MLOAD DUP1 SWAP2 SUB SWAP1 REVERT JUMPDEST DUP1 PUSH1 0x3 ADD PUSH1 0x1 SWAP1 SLOAD SWAP1 PUSH2 0x100 EXP SWAP1 DIV PUSH1 0xFF AND ISZERO PUSH2 0x3E0 JUMPI PUSH1 0x40 MLOAD PUSH32 0x8C379A000000000000000000000000000000000000000000000000000000000 DUP2 MSTORE PUSH1 0x4 ADD PUSH2 0x3D7 SWAP1 PUSH2 0x1582 JUMP JUMPDEST PUSH1 0x40 MLOAD DUP1 SWAP2 SUB SWAP1 REVERT JUMPDEST DUP1 PUSH1 0x5 ADD SLOAD TIMESTAMP LT ISZERO PUSH2 0x427 JUMPI PUSH1 0x40 MLOAD PUSH32 0x8C379A000000000000000000000000000000000000000000000000000000000 DUP2 MSTORE PUSH1 0x4 ADD PUSH2 0x41E SWAP1 PUSH2 0x15EA JUMP JUMPDEST PUSH1 0x40 MLOAD DUP1 SWAP2 SUB SWAP1 REVERT JUMPDEST PUSH1 0x1 DUP2 PUSH1 0x3 ADD PUSH1 0x1 PUSH2 0x100 EXP DUP2 SLOAD DUP2 PUSH1 0xFF MUL NOT AND SWAP1 DUP4 ISZERO ISZERO MUL OR SWAP1 SSTORE POP PUSH0 DUP2 PUSH0 ADD PUSH0 SWAP1 SLOAD SWAP1 PUSH2 0x100 EXP SWAP1 DIV PUSH20 0xFFFFFFFFFFFFFFFFFFFFFFFFFFFFFFFFFFFFFFFF AND PUSH20 0xFFFFFFFFFFFFFFFFFFFFFFFFFFFFFFFFFFFFFFFF AND DUP3 PUSH1 0x2 ADD SLOAD PUSH1 0x40 MLOAD PUSH2 0x48F SWAP1 PUSH2 0x1635 JUMP JUMPDEST PUSH0 PUSH1 0x40 MLOAD DUP1 DUP4 SUB DUP2 DUP6 DUP8 GAS CALL SWAP3 POP POP POP RETURNDATASIZE DUP1 PUSH0 DUP2 EQ PUSH2 0x4C9 JUMPI PUSH1 0x40 MLOAD SWAP2 POP PUSH1 0x1F NOT PUSH1 0x3F RETURNDATASIZE ADD AND DUP3 ADD PUSH1 0x40 MSTORE RETURNDATASIZE DUP3 MSTORE RETURNDATASIZE PUSH0 PUSH1 0x20 DUP5 ADD RETURNDATACOPY PUSH2 0x4CE JUMP JUMPDEST PUSH1 0x60 SWAP2 POP JUMPDEST POP POP SWAP1 POP DUP1 PUSH2 0x512 JUMPI PUSH1 0x40 MLOAD PUSH32 0x8C379A000000000000000000000000000000000000000000000000000000000 DUP2 MSTORE PUSH1 0x4 ADD PUSH2 0x509 SWAP1 PUSH2 0x1693 JUMP JUMPDEST PUSH1 0x40 MLOAD DUP1 SWAP2 SUB SWAP1 REVERT JUMPDEST DUP2 PUSH0 ADD PUSH0 SWAP1 SLOAD SWAP1 PUSH2 0x100 EXP SWAP1 DIV PUSH20 0xFFFFFFFFFFFFFFFFFFFFFFFFFFFFFFFFFFFFFFFF AND PUSH20 0xFFFFFFFFFFFFFFFFFFFFFFFFFFFFFFFFFFFFFFFF AND DUP5 PUSH32 0xFC31A7DDBE933AA6E67F3C98C183FBC87ADDD2B602FCFB10238D2F85CF026617 DUP5 PUSH1 0x2 ADD SLOAD PUSH1 0x40 MLOAD PUSH2 0x57F SWAP2 SWAP1 PUSH2 0x16B1 JUMP JUMPDEST PUSH1 0x40 MLOAD DUP1 SWAP2 SUB SWAP1 LOG3 POP POP POP POP JUMP JUMPDEST PUSH0 PUSH0 PUSH0 PUSH0 DUP5 DUP2 MSTORE PUSH1 0x20 ADD SWAP1 DUP2 MSTORE PUSH1 0x20 ADD PUSH0 KECCAK256 SWAP1 POP DUP1 PUSH1 0x3 ADD PUSH0 SWAP1 SLOAD SWAP1 PUSH2 0x100 EXP SWAP1 DIV PUSH1 0xFF AND ISZERO DUP1 ISZERO PUSH2 0x5CE JUMPI POP DUP1 PUSH1 0x3 ADD PUSH1 0x1 SWAP1 SLOAD SWAP1 PUSH2 0x100 EXP SWAP1 DIV PUSH1 0xFF AND ISZERO JUMPDEST DUP1 ISZERO PUSH2 0x628 JUMPI POP PUSH0 PUSH20 0xFFFFFFFFFFFFFFFFFFFFFFFFFFFFFFFFFFFFFFFF AND DUP2 PUSH0 ADD PUSH0 SWAP1 SLOAD SWAP1 PUSH2 0x100 EXP SWAP1 DIV PUSH20 0xFFFFFFFFFFFFFFFFFFFFFFFFFFFFFFFFFFFFFFFF AND PUSH20 0xFFFFFFFFFFFFFFFFFFFFFFFFFFFFFFFFFFFFFFFF AND EQ ISZERO JUMPDEST DUP1 ISZERO PUSH2 0x638 JUMPI POP DUP1 PUSH1 0x5 ADD SLOAD TIMESTAMP LT ISZERO JUMPDEST SWAP2 POP POP SWAP2 SWAP1 POP JUMP JUMPDEST PUSH1 0x1 PUSH0 SWAP1 SLOAD SWAP1 PUSH2 0x100 EXP SWAP1 DIV PUSH20 0xFFFFFFFFFFFFFFFFFFFFFFFFFFFFFFFFFFFFFFFF AND PUSH20 0xFFFFFFFFFFFFFFFFFFFFFFFFFFFFFFFFFFFFFFFF AND CALLER PUSH20 0xFFFFFFFFFFFFFFFFFFFFFFFFFFFFFFFFFFFFFFFF AND EQ PUSH2 0x6CF JUMPI PUSH1 0x40 MLOAD PUSH32 0x8C379A000000000000000000000000000000000000000000000000000000000 DUP2 MSTORE PUSH1 0x4 ADD PUSH2 0x6C6 SWAP1 PUSH2 0x1714 JUMP JUMPDEST PUSH1 0x40 MLOAD DUP1 SWAP2 SUB SWAP1 REVERT JUMPDEST DUP1 PUSH0 PUSH20 0xFFFFFFFFFFFFFFFFFFFFFFFFFFFFFFFFFFFFFFFF AND PUSH0 PUSH0 DUP4 DUP2 MSTORE PUSH1 0x20 ADD SWAP1 DUP2 MSTORE PUSH1 0x20 ADD PUSH0 KECCAK256 PUSH0 ADD PUSH0 SWAP1 SLOAD SWAP1 PUSH2 0x100 EXP SWAP1 DIV PUSH20 0xFFFFFFFFFFFFFFFFFFFFFFFFFFFFFFFFFFFFFFFF AND PUSH20 0xFFFFFFFFFFFFFFFFFFFFFFFFFFFFFFFFFFFFFFFF AND SUB PUSH2 0x76F JUMPI PUSH1 0x40 MLOAD PUSH32 0x8C379A000000000000000000000000000000000000000000000000000000000 DUP2 MSTORE PUSH1 0x4 ADD PUSH2 0x766 SWAP1 PUSH2 0x14B2 JUMP JUMPDEST PUSH1 0x40 MLOAD DUP1 SWAP2 SUB SWAP1 REVERT JUMPDEST PUSH0 PUSH0 PUSH0 DUP5 DUP2 MSTORE PUSH1 0x20 ADD SWAP1 DUP2 MSTORE PUSH1 0x20 ADD PUSH0 KECCAK256 SWAP1 POP DUP1 PUSH1 0x3 ADD PUSH0 SWAP1 SLOAD SWAP1 PUSH2 0x100 EXP SWAP1 DIV PUSH1 0xFF AND ISZERO PUSH2 0x7D3 JUMPI PUSH1 0x40 MLOAD PUSH32 0x8C379A000000000000000000000000000000000000000000000000000000000 DUP2 MSTORE PUSH1 0x4 ADD PUSH2 0x7CA SWAP1 PUSH2 0x151A JUMP JUMPDEST PUSH1 0x40 MLOAD DUP1 SWAP2 SUB SWAP1 REVERT JUMPDEST DUP1 PUSH1 0x3 ADD PUSH1 0x1 SWAP1 SLOAD SWAP1 PUSH2 0x100 EXP SWAP1 DIV PUSH1 0xFF AND ISZERO PUSH2 0x825 JUMPI PUSH1 0x40 MLOAD PUSH32 0x8C379A000000000000000000000000000000000000000000000000000000000 DUP2 MSTORE PUSH1 0x4 ADD PUSH2 0x81C SWAP1 PUSH2 0x1582 JUMP JUMPDEST PUSH1 0x40 MLOAD DUP1 SWAP2 SUB SWAP1 REVERT JUMPDEST PUSH1 0x1 DUP2 PUSH1 0x3 ADD PUSH0 PUSH2 0x100 EXP DUP2 SLOAD DUP2 PUSH1 0xFF MUL NOT AND SWAP1 DUP4 ISZERO ISZERO MUL OR SWAP1 SSTORE POP PUSH0 DUP2 PUSH1 0x1 ADD PUSH0 SWAP1 SLOAD SWAP1 PUSH2 0x100 EXP SWAP1 DIV PUSH20 0xFFFFFFFFFFFFFFFFFFFFFFFFFFFFFFFFFFFFFFFF AND PUSH20 0xFFFFFFFFFFFFFFFFFFFFFFFFFFFFFFFFFFFFFFFF AND DUP3 PUSH1 0x2 ADD SLOAD PUSH1 0x40 MLOAD PUSH2 0x88D SWAP1 PUSH2 0x1635 JUMP JUMPDEST PUSH0 PUSH1 0x40 MLOAD DUP1 DUP4 SUB DUP2 DUP6 DUP8 GAS CALL SWAP3 POP POP POP RETURNDATASIZE DUP1 PUSH0 DUP2 EQ PUSH2 0x8C7 JUMPI PUSH1 0x40 MLOAD SWAP2 POP PUSH1 0x1F NOT PUSH1 0x3F RETURNDATASIZE ADD AND DUP3 ADD PUSH1 0x40 MSTORE RETURNDATASIZE DUP3 MSTORE RETURNDATASIZE PUSH0 PUSH1 0x20 DUP5 ADD RETURNDATACOPY PUSH2 0x8CC JUMP JUMPDEST PUSH1 0x60 SWAP2 POP JUMPDEST POP POP SWAP1 POP DUP1 PUSH2 0x910 JUMPI PUSH1 0x40 MLOAD PUSH32 0x8C379A000000000000000000000000000000000000000000000000000000000 DUP2 MSTORE PUSH1 0x4 ADD PUSH2 0x907 SWAP1 PUSH2 0x1693 JUMP JUMPDEST PUSH1 0x40 MLOAD DUP1 SWAP2 SUB SWAP1 REVERT JUMPDEST DUP2 PUSH1 0x1 ADD PUSH0 SWAP1 SLOAD SWAP1 PUSH2 0x100 EXP SWAP1 DIV PUSH20 0xFFFFFFFFFFFFFFFFFFFFFFFFFFFFFFFFFFFFFFFF AND PUSH20 0xFFFFFFFFFFFFFFFFFFFFFFFFFFFFFFFFFFFFFFFF AND DUP5 PUSH32 0x3A9C1CD29CD3BE251A72CE3C367C27DC1CB697AC4589965B76A83F9A25CA0710 DUP5 PUSH1 0x2 ADD SLOAD PUSH1 0x40 MLOAD PUSH2 0x97E SWAP2 SWAP1 PUSH2 0x16B1 JUMP JUMPDEST PUSH1 0x40 MLOAD DUP1 SWAP2 SUB SWAP1 LOG3 POP POP POP POP JUMP JUMPDEST PUSH1 0x1 PUSH0 SWAP1 SLOAD SWAP1 PUSH2 0x100 EXP SWAP1 DIV PUSH20 0xFFFFFFFFFFFFFFFFFFFFFFFFFFFFFFFFFFFFFFFF AND PUSH20 0xFFFFFFFFFFFFFFFFFFFFFFFFFFFFFFFFFFFFFFFF AND CALLER PUSH20 0xFFFFFFFFFFFFFFFFFFFFFFFFFFFFFFFFFFFFFFFF AND EQ PUSH2 0xA1B JUMPI PUSH1 0x40 MLOAD PUSH32 0x8C379A000000000000000000000000000000000000000000000000000000000 DUP2 MSTORE PUSH1 0x4 ADD PUSH2 0xA12 SWAP1 PUSH2 0x1714 JUMP JUMPDEST PUSH1 0x40 MLOAD DUP1 SWAP2 SUB SWAP1 REVERT JUMPDEST DUP1 PUSH0 PUSH20 0xFFFFFFFFFFFFFFFFFFFFFFFFFFFFFFFFFFFFFFFF AND PUSH0 PUSH0 DUP4 DUP2 MSTORE PUSH1 0x20 ADD SWAP1 DUP2 MSTORE PUSH1 0x20 ADD PUSH0 KECCAK256 PUSH0 ADD PUSH0 SWAP1 SLOAD SWAP1 PUSH2 0x100 EXP SWAP1 DIV PUSH20 0xFFFFFFFFFFFFFFFFFFFFFFFFFFFFFFFFFFFFFFFF AND PUSH20 0xFFFFFFFFFFFFFFFFFFFFFFFFFFFFFFFFFFFFFFFF AND SUB PUSH2 0xABB JUMPI PUSH1 0x40 MLOAD PUSH32 0x8C379A000000000000000000000000000000000000000000000000000000000 DUP2 MSTORE PUSH1 0x4 ADD PUSH2 0xAB2 SWAP1 PUSH2 0x14B2 JUMP JUMPDEST PUSH1 0x40 MLOAD DUP1 SWAP2 SUB SWAP1 REVERT JUMPDEST PUSH0 PUSH0 PUSH0 DUP5 DUP2 MSTORE PUSH1 0x20 ADD SWAP1 DUP2 MSTORE PUSH1 0x20 ADD PUSH0 KECCAK256 SWAP1 POP DUP1 PUSH1 0x3 ADD PUSH0 SWAP1 SLOAD SWAP1 PUSH2 0x100 EXP SWAP1 DIV PUSH1 0xFF AND ISZERO PUSH2 0xB1F JUMPI PUSH1 0x40 MLOAD PUSH32 0x8C379A000000000000000000000000000000000000000000000000000000000 DUP2 MSTORE PUSH1 0x4 ADD PUSH2 0xB16 SWAP1 PUSH2 0x151A JUMP JUMPDEST PUSH1 0x40 MLOAD DUP1 SWAP2 SUB SWAP1 REVERT JUMPDEST DUP1 PUSH1 0x3 ADD PUSH1 0x1 SWAP1 SLOAD SWAP1 PUSH2 0x100 EXP SWAP1 DIV PUSH1 0xFF AND ISZERO PUSH2 0xB71 JUMPI PUSH1 0x40 MLOAD PUSH32 0x8C379A000000000000000000000000000000000000000000000000000000000 DUP2 MSTORE PUSH1 0x4 ADD PUSH2 0xB68 SWAP1 PUSH2 0x1582 JUMP JUMPDEST PUSH1 0x40 MLOAD DUP1 SWAP2 SUB SWAP1 REVERT JUMPDEST PUSH1 0x1 DUP2 PUSH1 0x3 ADD PUSH1 0x1 PUSH2 0x100 EXP DUP2 SLOAD DUP2 PUSH1 0xFF MUL NOT AND SWAP1 DUP4 ISZERO ISZERO MUL OR SWAP1 SSTORE POP PUSH0 DUP2 PUSH0 ADD PUSH0 SWAP1 SLOAD SWAP1 PUSH2 0x100 EXP SWAP1 DIV PUSH20 0xFFFFFFFFFFFFFFFFFFFFFFFFFFFFFFFFFFFFFFFF AND PUSH20 0xFFFFFFFFFFFFFFFFFFFFFFFFFFFFFFFFFFFFFFFF AND DUP3 PUSH1 0x2 ADD SLOAD PUSH1 0x40 MLOAD PUSH2 0xBD9 SWAP1 PUSH2 0x1635 JUMP JUMPDEST PUSH0 PUSH1 0x40 MLOAD DUP1 DUP4 SUB DUP2 DUP6 DUP8 GAS CALL SWAP3 POP POP POP RETURNDATASIZE DUP1 PUSH0 DUP2 EQ PUSH2 0xC13 JUMPI PUSH1 0x40 MLOAD SWAP2 POP PUSH1 0x1F NOT PUSH1 0x3F RETURNDATASIZE ADD AND DUP3 ADD PUSH1 0x40 MSTORE RETURNDATASIZE DUP3 MSTORE RETURNDATASIZE PUSH0 PUSH1 0x20 DUP5 ADD RETURNDATACOPY PUSH2 0xC18 JUMP JUMPDEST PUSH1 0x60 SWAP2 POP JUMPDEST POP POP SWAP1 POP DUP1 PUSH2 0xC5C JUMPI PUSH1 0x40 MLOAD PUSH32 0x8C379A000000000000000000000000000000000000000000000000000000000 DUP2 MSTORE PUSH1 0x4 ADD PUSH2 0xC53 SWAP1 PUSH2 0x1693 JUMP JUMPDEST PUSH1 0x40 MLOAD DUP1 SWAP2 SUB SWAP1 REVERT JUMPDEST DUP2 PUSH0 ADD PUSH0 SWAP1 SLOAD SWAP1 PUSH2 0x100 EXP SWAP1 DIV PUSH20 0xFFFFFFFFFFFFFFFFFFFFFFFFFFFFFFFFFFFFFFFF AND PUSH20 0xFFFFFFFFFFFFFFFFFFFFFFFFFFFFFFFFFFFFFFFF AND DUP5 PUSH32 0xFC31A7DDBE933AA6E67F3C98C183FBC87ADDD2B602FCFB10238D2F85CF026617 DUP5 PUSH1 0x2 ADD SLOAD PUSH1 0x40 MLOAD PUSH2 0xCC9 SWAP2 SWAP1 PUSH2 0x16B1 JUMP JUMPDEST PUSH1 0x40 MLOAD DUP1 SWAP2 SUB SWAP1 LOG3 POP POP POP POP JUMP JUMPDEST PUSH1 0x1 PUSH0 SWAP1 SLOAD SWAP1 PUSH2 0x100 EXP SWAP1 DIV PUSH20 0xFFFFFFFFFFFFFFFFFFFFFFFFFFFFFFFFFFFFFFFF AND DUP2 JUMP JUMPDEST PUSH0 CALLVALUE GT PUSH2 0xD3E JUMPI PUSH1 0x40 MLOAD PUSH32 0x8C379A000000000000000000000000000000000000000000000000000000000 DUP2 MSTORE PUSH1 0x4 ADD PUSH2 0xD35 SWAP1 PUSH2 0x177C JUMP JUMPDEST PUSH1 0x40 MLOAD DUP1 SWAP2 SUB SWAP1 REVERT JUMPDEST PUSH0 PUSH20 0xFFFFFFFFFFFFFFFFFFFFFFFFFFFFFFFFFFFFFFFF AND DUP2 PUSH20 0xFFFFFFFFFFFFFFFFFFFFFFFFFFFFFFFFFFFFFFFF AND SUB PUSH2 0xDAC JUMPI PUSH1 0x40 MLOAD PUSH32 0x8C379A000000000000000000000000000000000000000000000000000000000 DUP2 MSTORE PUSH1 0x4 ADD PUSH2 0xDA3 SWAP1 PUSH2 0x17E4 JUMP JUMPDEST PUSH1 0x40 MLOAD DUP1 SWAP2 SUB SWAP1 REVERT JUMPDEST PUSH0 PUSH20 0xFFFFFFFFFFFFFFFFFFFFFFFFFFFFFFFFFFFFFFFF AND PUSH0 PUSH0 DUP5 DUP2 MSTORE PUSH1 0x20 ADD SWAP1 DUP2 MSTORE PUSH1 0x20 ADD PUSH0 KECCAK256 PUSH0 ADD PUSH0 SWAP1 SLOAD SWAP1 PUSH2 0x100 EXP SWAP1 DIV PUSH20 0xFFFFFFFFFFFFFFFFFFFFFFFFFFFFFFFFFFFFFFFF AND PUSH20 0xFFFFFFFFFFFFFFFFFFFFFFFFFFFFFFFFFFFFFFFF AND EQ PUSH2 0xE4B JUMPI PUSH1 0x40 MLOAD PUSH32 0x8C379A000000000000000000000000000000000000000000000000000000000 DUP2 MSTORE PUSH1 0x4 ADD PUSH2 0xE42 SWAP1 PUSH2 0x184C JUMP JUMPDEST PUSH1 0x40 MLOAD DUP1 SWAP2 SUB SWAP1 REVERT JUMPDEST PUSH1 0x40 MLOAD DUP1 PUSH1 0xE0 ADD PUSH1 0x40 MSTORE DUP1 CALLER PUSH20 0xFFFFFFFFFFFFFFFFFFFFFFFFFFFFFFFFFFFFFFFF AND DUP2 MSTORE PUSH1 0x20 ADD DUP3 PUSH20 0xFFFFFFFFFFFFFFFFFFFFFFFFFFFFFFFFFFFFFFFF AND DUP2 MSTORE PUSH1 0x20 ADD CALLVALUE DUP2 MSTORE PUSH1 0x20 ADD PUSH0 ISZERO ISZERO DUP2 MSTORE PUSH1 0x20 ADD PUSH0 ISZERO ISZERO DUP2 MSTORE PUSH1 0x20 ADD TIMESTAMP DUP2 MSTORE PUSH1 0x20 ADD PUSH3 0x278D00 TIMESTAMP PUSH2 0xEB9 SWAP2 SWAP1 PUSH2 0x1897 JUMP JUMPDEST DUP2 MSTORE POP PUSH0 PUSH0 DUP5 DUP2 MSTORE PUSH1 0x20 ADD SWAP1 DUP2 MSTORE PUSH1 0x20 ADD PUSH0 KECCAK256 PUSH0 DUP3 ADD MLOAD DUP2 PUSH0 ADD PUSH0 PUSH2 0x100 EXP DUP2 SLOAD DUP2 PUSH20 0xFFFFFFFFFFFFFFFFFFFFFFFFFFFFFFFFFFFFFFFF MUL NOT AND SWAP1 DUP4 PUSH20 0xFFFFFFFFFFFFFFFFFFFFFFFFFFFFFFFFFFFFFFFF AND MUL OR SWAP1 SSTORE POP PUSH1 0x20 DUP3 ADD MLOAD DUP2 PUSH1 0x1 ADD PUSH0 PUSH2 0x100 EXP DUP2 SLOAD DUP2 PUSH20 0xFFFFFFFFFFFFFFFFFFFFFFFFFFFFFFFFFFFFFFFF MUL NOT AND SWAP1 DUP4 PUSH20 0xFFFFFFFFFFFFFFFFFFFFFFFFFFFFFFFFFFFFFFFF AND MUL OR SWAP1 SSTORE POP PUSH1 0x40 DUP3 ADD MLOAD DUP2 PUSH1 0x2 ADD SSTORE PUSH1 0x60 DUP3 ADD MLOAD DUP2 PUSH1 0x3 ADD PUSH0 PUSH2 0x100 EXP DUP2 SLOAD DUP2 PUSH1 0xFF MUL NOT AND SWAP1 DUP4 ISZERO ISZERO MUL OR SWAP1 SSTORE POP PUSH1 0x80 DUP3 ADD MLOAD DUP2 PUSH1 0x3 ADD PUSH1 0x1 PUSH2 0x100 EXP DUP2 SLOAD DUP2 PUSH1 0xFF MUL NOT AND SWAP1 DUP4 ISZERO ISZERO MUL OR SWAP1 SSTORE POP PUSH1 0xA0 DUP3 ADD MLOAD DUP2 PUSH1 0x4 ADD SSTORE PUSH1 0xC0 DUP3 ADD MLOAD DUP2 PUSH1 0x5 ADD SSTORE SWAP1 POP POP DUP1 PUSH20 0xFFFFFFFFFFFFFFFFFFFFFFFFFFFFFFFFFFFFFFFF AND CALLER PUSH20 0xFFFFFFFFFFFFFFFFFFFFFFFFFFFFFFFFFFFFFFFF AND DUP4 PUSH32 0xDD968C277D9DC6B36B6EC2B638324C3D937882C64CA109440BC050EBF26CB07 CALLVALUE PUSH1 0x40 MLOAD PUSH2 0x1014 SWAP2 SWAP1 PUSH2 0x16B1 JUMP JUMPDEST PUSH1 0x40 MLOAD DUP1 SWAP2 SUB SWAP1 LOG4 POP POP JUMP JUMPDEST PUSH2 0x1028 PUSH2 0x1146 JUMP JUMPDEST PUSH0 PUSH0 DUP4 DUP2 MSTORE PUSH1 0x20 ADD SWAP1 DUP2 MSTORE PUSH1 0x20 ADD PUSH0 KECCAK256 PUSH1 0x40 MLOAD DUP1 PUSH1 0xE0 ADD PUSH1 0x40 MSTORE SWAP1 DUP2 PUSH0 DUP3 ADD PUSH0 SWAP1 SLOAD SWAP1 PUSH2 0x100 EXP SWAP1 DIV PUSH20 0xFFFFFFFFFFFFFFFFFFFFFFFFFFFFFFFFFFFFFFFF AND PUSH20 0xFFFFFFFFFFFFFFFFFFFFFFFFFFFFFFFFFFFFFFFF AND PUSH20 0xFFFFFFFFFFFFFFFFFFFFFFFFFFFFFFFFFFFFFFFF AND DUP2 MSTORE PUSH1 0x20 ADD PUSH1 0x1 DUP3 ADD PUSH0 SWAP1 SLOAD SWAP1 PUSH2 0x100 EXP SWAP1 DIV PUSH20 0xFFFFFFFFFFFFFFFFFFFFFFFFFFFFFFFFFFFFFFFF AND PUSH20 0xFFFFFFFFFFFFFFFFFFFFFFFFFFFFFFFFFFFFFFFF AND PUSH20 0xFFFFFFFFFFFFFFFFFFFFFFFFFFFFFFFFFFFFFFFF AND DUP2 MSTORE PUSH1 0x20 ADD PUSH1 0x2 DUP3 ADD SLOAD DUP2 MSTORE PUSH1 0x20 ADD PUSH1 0x3 DUP3 ADD PUSH0 SWAP1 SLOAD SWAP1 PUSH2 0x100 EXP SWAP1 DIV PUSH1 0xFF AND ISZERO ISZERO ISZERO ISZERO DUP2 MSTORE PUSH1 0x20 ADD PUSH1 0x3 DUP3 ADD PUSH1 0x1 SWAP1 SLOAD SWAP1 PUSH2 0x100 EXP SWAP1 DIV PUSH1 0xFF AND ISZERO ISZERO ISZERO ISZERO DUP2 MSTORE PUSH1 0x20 ADD PUSH1 0x4 DUP3 ADD SLOAD DUP2 MSTORE PUSH1 0x20 ADD PUSH1 0x5 DUP3 ADD SLOAD DUP2 MSTORE POP POP SWAP1 POP SWAP2 SWAP1 POP JUMP JUMPDEST PUSH1 0x40 MLOAD DUP1 PUSH1 0xE0 ADD PUSH1 0x40 MSTORE DUP1 PUSH0 PUSH20 0xFFFFFFFFFFFFFFFFFFFFFFFFFFFFFFFFFFFFFFFF AND DUP2 MSTORE PUSH1 0x20 ADD PUSH0 PUSH20 0xFFFFFFFFFFFFFFFFFFFFFFFFFFFFFFFFFFFFFFFF AND DUP2 MSTORE PUSH1 0x20 ADD PUSH0 DUP2 MSTORE PUSH1 0x20 ADD PUSH0 ISZERO ISZERO DUP2 MSTORE PUSH1 0x20 ADD PUSH0 ISZERO ISZERO DUP2 MSTORE PUSH1 0x20 ADD PUSH0 DUP2 MSTORE PUSH1 0x20 ADD PUSH0 DUP2 MSTORE POP SWAP1 JUMP JUMPDEST PUSH0 PUSH0 REVERT JUMPDEST PUSH0 DUP2 SWAP1 POP SWAP2 SWAP1 POP JUMP JUMPDEST PUSH2 0x11C2 DUP2 PUSH2 0x11B0 JUMP JUMPDEST DUP2 EQ PUSH2 0x11CC JUMPI PUSH0 PUSH0 REVERT JUMPDEST POP JUMP JUMPDEST PUSH0 DUP2 CALLDATALOAD SWAP1 POP PUSH2 0x11DD DUP2 PUSH2 0x11B9 JUMP JUMPDEST SWAP3 SWAP2 POP POP JUMP JUMPDEST PUSH0 PUSH1 0x20 DUP3 DUP5 SUB SLT ISZERO PUSH2 0x11F8 JUMPI PUSH2 0x11F7 PUSH2 0x11AC JUMP JUMPDEST JUMPDEST PUSH0 PUSH2 0x1205 DUP5 DUP3 DUP6 ADD PUSH2 0x11CF JUMP JUMPDEST SWAP2 POP POP SWAP3 SWAP2 POP POP JUMP JUMPDEST PUSH0 PUSH20 0xFFFFFFFFFFFFFFFFFFFFFFFFFFFFFFFFFFFFFFFF DUP3 AND SWAP1 POP SWAP2 SWAP1 POP JUMP JUMPDEST PUSH0 PUSH2 0x1237 DUP3 PUSH2 0x120E JUMP JUMPDEST SWAP1 POP SWAP2 SWAP1 POP JUMP JUMPDEST PUSH2 0x1247 DUP2 PUSH2 0x122D JUMP JUMPDEST DUP3 MSTORE POP POP JUMP JUMPDEST PUSH0 DUP2 SWAP1 POP SWAP2 SWAP1 POP JUMP JUMPDEST PUSH2 0x125F DUP2 PUSH2 0x124D JUMP JUMPDEST DUP3 MSTORE POP POP JUMP JUMPDEST PUSH0 DUP2 ISZERO ISZERO SWAP1 POP SWAP2 SWAP1 POP JUMP JUMPDEST PUSH2 0x1279 DUP2 PUSH2 0x1265 JUMP JUMPDEST DUP3 MSTORE POP POP JUMP JUMPDEST PUSH0 PUSH1 0xE0 DUP3 ADD SWAP1 POP PUSH2 0x1292 PUSH0 DUP4 ADD DUP11 PUSH2 0x123E JUMP JUMPDEST PUSH2 0x129F PUSH1 0x20 DUP4 ADD DUP10 PUSH2 0x123E JUMP JUMPDEST PUSH2 0x12AC PUSH1 0x40 DUP4 ADD DUP9 PUSH2 0x1256 JUMP JUMPDEST PUSH2 0x12B9 PUSH1 0x60 DUP4 ADD DUP8 PUSH2 0x1270 JUMP JUMPDEST PUSH2 0x12C6 PUSH1 0x80 DUP4 ADD DUP7 PUSH2 0x1270 JUMP JUMPDEST PUSH2 0x12D3 PUSH1 0xA0 DUP4 ADD DUP6 PUSH2 0x1256 JUMP JUMPDEST PUSH2 0x12E0 PUSH1 0xC0 DUP4 ADD DUP5 PUSH2 0x1256 JUMP JUMPDEST SWAP9 SWAP8 POP POP POP POP POP POP POP POP JUMP JUMPDEST PUSH0 PUSH1 0x20 DUP3 ADD SWAP1 POP PUSH2 0x12FF PUSH0 DUP4 ADD DUP5 PUSH2 0x1270 JUMP JUMPDEST SWAP3 SWAP2 POP POP JUMP JUMPDEST PUSH0 PUSH1 0x20 DUP3 ADD SWAP1 POP PUSH2 0x1318 PUSH0 DUP4 ADD DUP5 PUSH2 0x123E JUMP JUMPDEST SWAP3 SWAP2 POP POP JUMP JUMPDEST PUSH2 0x1327 DUP2 PUSH2 0x122D JUMP JUMPDEST DUP2 EQ PUSH2 0x1331 JUMPI PUSH0 PUSH0 REVERT JUMPDEST POP JUMP JUMPDEST PUSH0 DUP2 CALLDATALOAD SWAP1 POP PUSH2 0x1342 DUP2 PUSH2 0x131E JUMP JUMPDEST SWAP3 SWAP2 POP POP JUMP JUMPDEST PUSH0 PUSH0 PUSH1 0x40 DUP4 DUP6 SUB SLT ISZERO PUSH2 0x135E JUMPI PUSH2 0x135D PUSH2 0x11AC JUMP JUMPDEST JUMPDEST PUSH0 PUSH2 0x136B DUP6 DUP3 DUP7 ADD PUSH2 0x11CF JUMP JUMPDEST SWAP3 POP POP PUSH1 0x20 PUSH2 0x137C DUP6 DUP3 DUP7 ADD PUSH2 0x1334 JUMP JUMPDEST SWAP2 POP POP SWAP3 POP SWAP3 SWAP1 POP JUMP JUMPDEST PUSH2 0x138F DUP2 PUSH2 0x122D JUMP JUMPDEST DUP3 MSTORE POP POP JUMP JUMPDEST PUSH2 0x139E DUP2 PUSH2 0x124D JUMP JUMPDEST DUP3 MSTORE POP POP JUMP JUMPDEST PUSH2 0x13AD DUP2 PUSH2 0x1265 JUMP JUMPDEST DUP3 MSTORE POP POP JUMP JUMPDEST PUSH1 0xE0 DUP3 ADD PUSH0 DUP3 ADD MLOAD PUSH2 0x13C7 PUSH0 DUP6 ADD DUP3 PUSH2 0x1386 JUMP JUMPDEST POP PUSH1 0x20 DUP3 ADD MLOAD PUSH2 0x13DA PUSH1 0x20 DUP6 ADD DUP3 PUSH2 0x1386 JUMP JUMPDEST POP PUSH1 0x40 DUP3 ADD MLOAD PUSH2 0x13ED PUSH1 0x40 DUP6 ADD DUP3 PUSH2 0x1395 JUMP JUMPDEST POP PUSH1 0x60 DUP3 ADD MLOAD PUSH2 0x1400 PUSH1 0x60 DUP6 ADD DUP3 PUSH2 0x13A4 JUMP JUMPDEST POP PUSH1 0x80 DUP3 ADD MLOAD PUSH2 0x1413 PUSH1 0x80 DUP6 ADD DUP3 PUSH2 0x13A4 JUMP JUMPDEST POP PUSH1 0xA0 DUP3 ADD MLOAD PUSH2 0x1426 PUSH1 0xA0 DUP6 ADD DUP3 PUSH2 0x1395 JUMP JUMPDEST POP PUSH1 0xC0 DUP3 ADD MLOAD PUSH2 0x1439 PUSH1 0xC0 DUP6 ADD DUP3 PUSH2 0x1395 JUMP JUMPDEST POP POP POP POP JUMP JUMPDEST PUSH0 PUSH1 0xE0 DUP3 ADD SWAP1 POP PUSH2 0x1452 PUSH0 DUP4 ADD DUP5 PUSH2 0x13B3 JUMP JUMPDEST SWAP3 SWAP2 POP POP JUMP JUMPDEST PUSH0 DUP3 DUP3 MSTORE PUSH1 0x20 DUP3 ADD SWAP1 POP SWAP3 SWAP2 POP POP JUMP JUMPDEST PUSH32 0x457363726F7720646F6573206E6F742065786973740000000000000000000000 PUSH0 DUP3 ADD MSTORE POP JUMP JUMPDEST PUSH0 PUSH2 0x149C PUSH1 0x15 DUP4 PUSH2 0x1458 JUMP JUMPDEST SWAP2 POP PUSH2 0x14A7 DUP3 PUSH2 0x1468 JUMP JUMPDEST PUSH1 0x20 DUP3 ADD SWAP1 POP SWAP2 SWAP1 POP JUMP JUMPDEST PUSH0 PUSH1 0x20 DUP3 ADD SWAP1 POP DUP2 DUP2 SUB PUSH0 DUP4 ADD MSTORE PUSH2 0x14C9 DUP2 PUSH2 0x1490 JUMP JUMPDEST SWAP1 POP SWAP2 SWAP1 POP JUMP JUMPDEST PUSH32 0x416C72656164792072656C656173656400000000000000000000000000000000 PUSH0 DUP3 ADD MSTORE POP JUMP JUMPDEST PUSH0 PUSH2 0x1504 PUSH1 0x10 DUP4 PUSH2 0x1458 JUMP JUMPDEST SWAP2 POP PUSH2 0x150F DUP3 PUSH2 0x14D0 JUMP JUMPDEST PUSH1 0x20 DUP3 ADD SWAP1 POP SWAP2 SWAP1 POP JUMP JUMPDEST PUSH0 PUSH1 0x20 DUP3 ADD SWAP1 POP DUP2 DUP2 SUB PUSH0 DUP4 ADD MSTORE PUSH2 0x1531 DUP2 PUSH2 0x14F8 JUMP JUMPDEST SWAP1 POP SWAP2 SWAP1 POP JUMP JUMPDEST PUSH32 0x416C726561647920726566756E64656400000000000000000000000000000000 PUSH0 DUP3 ADD MSTORE POP JUMP JUMPDEST PUSH0 PUSH2 0x156C PUSH1 0x10 DUP4 PUSH2 0x1458 JUMP JUMPDEST SWAP2 POP PUSH2 0x1577 DUP3 PUSH2 0x1538 JUMP JUMPDEST PUSH1 0x20 DUP3 ADD SWAP1 POP SWAP2 SWAP1 POP JUMP JUMPDEST PUSH0 PUSH1 0x20 DUP3 ADD SWAP1 POP DUP2 DUP2 SUB PUSH0 DUP4 ADD MSTORE PUSH2 0x1599 DUP2 PUSH2 0x1560 JUMP JUMPDEST SWAP1 POP SWAP2 SWAP1 POP JUMP JUMPDEST PUSH32 0x446561646C696E65206E6F742072656163686564000000000000000000000000 PUSH0 DUP3 ADD MSTORE POP JUMP JUMPDEST PUSH0 PUSH2 0x15D4 PUSH1 0x14 DUP4 PUSH2 0x1458 JUMP JUMPDEST SWAP2 POP PUSH2 0x15DF DUP3 PUSH2 0x15A0 JUMP JUMPDEST PUSH1 0x20 DUP3 ADD SWAP1 POP SWAP2 SWAP1 POP JUMP JUMPDEST PUSH0 PUSH1 0x20 DUP3 ADD SWAP1 POP DUP2 DUP2 SUB PUSH0 DUP4 ADD MSTORE PUSH2 0x1601 DUP2 PUSH2 0x15C8 JUMP JUMPDEST SWAP1 POP SWAP2 SWAP1 POP JUMP JUMPDEST PUSH0 DUP2 SWAP1 POP SWAP3 SWAP2 POP POP JUMP JUMPDEST POP JUMP JUMPDEST PUSH0 PUSH2 0x1620 PUSH0 DUP4 PUSH2 0x1608 JUMP JUMPDEST SWAP2 POP PUSH2 0x162B DUP3 PUSH2 0x1612 JUMP JUMPDEST PUSH0 DUP3 ADD SWAP1 POP SWAP2 SWAP1 POP JUMP JUMPDEST PUSH0 PUSH2 0x163F DUP3 PUSH2 0x1615 JUMP JUMPDEST SWAP2 POP DUP2 SWAP1 POP SWAP2 SWAP1 POP JUMP JUMPDEST PUSH32 0x5472616E73666572206661696C65640000000000000000000000000000000000 PUSH0 DUP3 ADD MSTORE POP JUMP JUMPDEST PUSH0 PUSH2 0x167D PUSH1 0xF DUP4 PUSH2 0x1458 JUMP JUMPDEST SWAP2 POP PUSH2 0x1688 DUP3 PUSH2 0x1649 JUMP JUMPDEST PUSH1 0x20 DUP3 ADD SWAP1 POP SWAP2 SWAP1 POP JUMP JUMPDEST PUSH0 PUSH1 0x20 DUP3 ADD SWAP1 POP DUP2 DUP2 SUB PUSH0 DUP4 ADD MSTORE PUSH2 0x16AA DUP2 PUSH2 0x1671 JUMP JUMPDEST SWAP1 POP SWAP2 SWAP1 POP JUMP JUMPDEST PUSH0 PUSH1 0x20 DUP3 ADD SWAP1 POP PUSH2 0x16C4 PUSH0 DUP4 ADD DUP5 PUSH2 0x1256 JUMP JUMPDEST SWAP3 SWAP2 POP POP JUMP JUMPDEST PUSH32 0x4E6F7420617574686F72697A6564000000000000000000000000000000000000 PUSH0 DUP3 ADD MSTORE POP JUMP JUMPDEST PUSH0 PUSH2 0x16FE PUSH1 0xE DUP4 PUSH2 0x1458 JUMP JUMPDEST SWAP2 POP PUSH2 0x1709 DUP3 PUSH2 0x16CA JUMP JUMPDEST PUSH1 0x20 DUP3 ADD SWAP1 POP SWAP2 SWAP1 POP JUMP JUMPDEST PUSH0 PUSH1 0x20 DUP3 ADD SWAP1 POP DUP2 DUP2 SUB PUSH0 DUP4 ADD MSTORE PUSH2 0x172B DUP2 PUSH2 0x16F2 JUMP JUMPDEST SWAP1 POP SWAP2 SWAP1 POP JUMP JUMPDEST PUSH32 0x416D6F756E74206D7573742062652067726561746572207468616E2030000000 PUSH0 DUP3 ADD MSTORE POP JUMP JUMPDEST PUSH0 PUSH2 0x1766 PUSH1 0x1D DUP4 PUSH2 0x1458 JUMP JUMPDEST SWAP2 POP PUSH2 0x1771 DUP3 PUSH2 0x1732 JUMP JUMPDEST PUSH1 0x20 DUP3 ADD SWAP1 POP SWAP2 SWAP1 POP JUMP JUMPDEST PUSH0 PUSH1 0x20 DUP3 ADD SWAP1 POP DUP2 DUP2 SUB PUSH0 DUP4 ADD MSTORE PUSH2 0x1793 DUP2 PUSH2 0x175A JUMP JUMPDEST SWAP1 POP SWAP2 SWAP1 POP JUMP JUMPDEST PUSH32 0x496E76616C69642073656C6C6572206164647265737300000000000000000000 PUSH0 DUP3 ADD MSTORE POP JUMP JUMPDEST PUSH0 PUSH2 0x17CE PUSH1 0x16 DUP4 PUSH2 0x1458 JUMP JUMPDEST SWAP2 POP PUSH2 0x17D9 DUP3 PUSH2 0x179A JUMP JUMPDEST PUSH1 0x20 DUP3 ADD SWAP1 POP SWAP2 SWAP1 POP JUMP JUMPDEST PUSH0 PUSH1 0x20 DUP3 ADD SWAP1 POP DUP2 DUP2 SUB PUSH0 DUP4 ADD MSTORE PUSH2 0x17FB DUP2 PUSH2 0x17C2 JUMP JUMPDEST SWAP1 POP SWAP2 SWAP1 POP JUMP JUMPDEST PUSH32 0x457363726F7720616C7265616479206578697374730000000000000000000000 PUSH0 DUP3 ADD MSTORE POP JUMP JUMPDEST PUSH0 PUSH2 0x1836 PUSH1 0x15 DUP4 PUSH2 0x1458 JUMP JUMPDEST SWAP2 POP PUSH2 0x1841 DUP3 PUSH2 0x1802 JUMP JUMPDEST PUSH1 0x20 DUP3 ADD SWAP1 POP SWAP2 SWAP1 POP JUMP JUMPDEST PUSH0 PUSH1 0x20 DUP3 ADD SWAP1 POP DUP2 DUP2 SUB PUSH0 DUP4 ADD MSTORE PUSH2 0x1863 DUP2 PUSH2 0x182A JUMP JUMPDEST SWAP1 POP SWAP2 SWAP1 POP JUMP JUMPDEST PUSH32 0x4E487B7100000000000000000000000000000000000000000000000000000000 PUSH0 MSTORE PUSH1 0x11 PUSH1 0x4 MSTORE PUSH1 0x24 PUSH0 REVERT JUMPDEST PUSH0 PUSH2 0x18A1 DUP3 PUSH2 0x124D JUMP JUMPDEST SWAP2 POP PUSH2 0x18AC DUP4 PUSH2 0x124D JUMP JUMPDEST SWAP3 POP DUP3 DUP3 ADD SWAP1 POP DUP1 DUP3 GT ISZERO PUSH2 0x18C4 JUMPI PUSH2 0x18C3 PUSH2 0x186A JUMP JUMPDEST JUMPDEST SWAP3 SWAP2 POP POP JUMP INVALID LOG2 PUSH5 0x6970667358 0x22 SLT KECCAK256 KECCAK256 PUSH23 0x926F255B3CEBAD7FBC261BD014A980625A4DEF9D32CCD4 STOP LT NUMBER 0x2C JUMPF 0xF173 PUSH5 0x736F6C6343 STOP ADDMOD 0x1E STOP CALLER "
				},
				"gasEstimates": {
					"creation": {
						"codeDepositCost": "1280000",
						"executionCost": "25592",
						"totalCost": "1305592"
					},
					"external": {
						"autoRefund(bytes32)": "infinite",
						"canAutoRefund(bytes32)": "9419",
						"deposit(bytes32,address)": "infinite",
						"escrows(bytes32)": "infinite",
						"getEscrow(bytes32)": "infinite",
						"owner()": "2530",
						"refund(bytes32)": "infinite",
						"release(bytes32)": "infinite"
					}
				},
				"methodIdentifiers": {
					"autoRefund(bytes32)": "40975025",
					"canAutoRefund(bytes32)": "49b0b54f",
					"deposit(bytes32,address)": "cec4c855",
					"escrows(bytes32)": "2d83549c",
					"getEscrow(bytes32)": "f023b811",
					"owner()": "8da5cb5b",
					"refund(bytes32)": "7249fbb6",
					"release(bytes32)": "67d42a8b"
				}
			},
			"storageLayout": {
				"storage": [
					{
						"astId": 22,
						"contract": "DeliveryEscrow.sol:DeliveryEscrow",
						"label": "escrows",
						"offset": 0,
						"slot": "0",
						"type": "t_mapping(t_bytes32,t_struct(Escrow)17_storage)"
					},
					{
						"astId": 24,
						"contract": "DeliveryEscrow.sol:DeliveryEscrow",
						"label": "owner",
						"offset": 0,
						"slot": "1",
						"type": "t_address"
					}
				],
				"types": {
					"t_address": {
						"encoding": "inplace",
						"label": "address",
						"numberOfBytes": "20"
					},
					"t_bool": {
						"encoding": "inplace",
						"label": "bool",
						"numberOfBytes": "1"
					},
					"t_bytes32": {
						"encoding": "inplace",
						"label": "bytes32",
						"numberOfBytes": "32"
					},
					"t_mapping(t_bytes32,t_struct(Escrow)17_storage)": {
						"encoding": "mapping",
						"key": "t_bytes32",
						"label": "mapping(bytes32 => struct DeliveryEscrow.Escrow)",
						"numberOfBytes": "32",
						"value": "t_struct(Escrow)17_storage"
					},
					"t_struct(Escrow)17_storage": {
						"encoding": "inplace",
						"label": "struct DeliveryEscrow.Escrow",
						"members": [
							{
								"astId": 4,
								"contract": "DeliveryEscrow.sol:DeliveryEscrow",
								"label": "buyer",
								"offset": 0,
								"slot": "0",
								"type": "t_address"
							},
							{
								"astId": 6,
								"contract": "DeliveryEscrow.sol:DeliveryEscrow",
								"label": "seller",
								"offset": 0,
								"slot": "1",
								"type": "t_address"
							},
							{
								"astId": 8,
								"contract": "DeliveryEscrow.sol:DeliveryEscrow",
								"label": "amount",
								"offset": 0,
								"slot": "2",
								"type": "t_uint256"
							},
							{
								"astId": 10,
								"contract": "DeliveryEscrow.sol:DeliveryEscrow",
								"label": "released",
								"offset": 0,
								"slot": "3",
								"type": "t_bool"
							},
							{
								"astId": 12,
								"contract": "DeliveryEscrow.sol:DeliveryEscrow",
								"label": "refunded",
								"offset": 1,
								"slot": "3",
								"type": "t_bool"
							},
							{
								"astId": 14,
								"contract": "DeliveryEscrow.sol:DeliveryEscrow",
								"label": "createdAt",
								"offset": 0,
								"slot": "4",
								"type": "t_uint256"
							},
							{
								"astId": 16,
								"contract": "DeliveryEscrow.sol:DeliveryEscrow",
								"label": "releaseDeadline",
								"offset": 0,
								"slot": "5",
								"type": "t_uint256"
							}
						],
						"numberOfBytes": "192"
					},
					"t_uint256": {
						"encoding": "inplace",
						"label": "uint256",
						"numberOfBytes": "32"
					}
				}
			},
			"userdoc": {
				"kind": "user",
				"methods": {
					"autoRefund(bytes32)": {
						"notice": "Auto-refund if past deadline (anyone can call)"
					},
					"canAutoRefund(bytes32)": {
						"notice": "Check if escrow can be auto-refunded (past deadline)"
					},
					"deposit(bytes32,address)": {
						"notice": "Create escrow and deposit funds"
					},
					"getEscrow(bytes32)": {
						"notice": "Get escrow details"
					},
					"refund(bytes32)": {
						"notice": "Refund escrow to buyer"
					},
					"release(bytes32)": {
						"notice": "Release escrow to seller (called by backend service after verification)"
					}
				},
				"notice": "Escrow contract for delivery payments",
				"version": 1
			}
		}
	}
}